:100000004067002071FE000003BF01005DFE00009C
:100010005DFE00005DFE00005DFE000000000000CF
:10002000000000000000000000000000310001009E
:100030005DFE000000000000CDFF00005DFE00003E
:100040001102010005E3010011020100110201008B
:100050001102010011020100110201001102010050
:10006000BBE201001102010011020100EFE20100F8
:100070001102010011020100110201001102010030
:100080001102010011020100110201001102010020
:100090001102010011020100110201001102010010
:1000A0001102010011020100110201001102010000
:1000B00011020100110201001102010011020100F0
:1000C00011020100110201001102010011020100E0
:1000D00011020100110201001102010011020100D0
:1000E00011020100110201001102010011020100C0
:1000F00011020100110201001102010011020100B0
:1001000053B94AB9002908BF00281CBF4FF0FF317E
:100110004FF0FF3000F00CB8ADF1080C6DE904CEE3
:100120000BF026FFDDF804E0DDE9022304B07047A0
:10013000704700BF2DE9F00791E8F807B2E8021018
:100140005B1854EB0C04B2E802104D4156EB0C0660
:10015000B2E802104F4158EB0C08B2E8021059EB1C
:1001600001095AEB0C0A80E8F80780410130BDE82C
:10017000F00770472DE9F00791E8F807B2E80210A0
:100180005B1A74EB0C04B2E802108D4176EB0C069E
:10019000B2E802108F4178EB0C08B2E8021079EB5C
:1001A00001097AEB0C0A80E8F80780414042BDE87B
:1001B000F00770472DE9F007524290E87800B1E867
:1001C00080071740DB1918EA020854EB080419EA03
:1001D000020955EB09051AEA020A56EB0A0678C02D
:1001E00090E87800B1E8800717407B4118EA0208E0
:1001F00054EB080419EA020955EB09051AEA020A48
:1002000056EB0A0678C080410130BDE8F007704720
:100210002DE9F007524290E87800B1E880071740D6
:10022000DB1B18EA020874EB080419EA020975EBF3
:1002300009051AEA020A76EB0A0678C090E8780007
:10024000B1E880071740BB4118EA020874EB0804C4
:1002500019EA020975EB09051AEA020A76EB0A06A1
:1002600078C080414042BDE8F00770472DE9F001B9
:1002700052424FF0040890E8300091E8C000A31B00
:100280001340E41AF618EB1B1340ED1AFF1830C0A8
:10029000C0C1B8F10108EED1BDE8F001704700BF60
:1002A00000B592E8DC072DE9DC07B1E8805702B41D
:1002B000A7FB02510A95A8FB020BE7FB6310E9FBC1
:1002C00062B00B91A8FB0351EAFB6201E7FB64B546
:1002D000E7FB6605E8FB6615CDF830B0A9FB03B671
:1002E000EAFB6316ECFB6356E8FB640BE9FB641B5B
:1002F000EAFB645BECFB646B0D90ACFB0230059C8D
:10030000EEFB6250E9FB6460EAFB64B0E7FB64313A
:10031000E8FB6451069CE8FB6461E9FB64B1EAFB1D
:1003200064010E93A7FB0432079CE7FB6462E8FBC1
:1003300064B2E9FB6402EAFB6412049CE9FB6453C7
:10034000EAFB6463089CE7FB64B3E8FB6403E9FB36
:100350006413EAFB64230F955DF8049B99E800069B
:10036000DDF80080A9FB0854EAFB68B4DDF81080D2
:10037000ECFB6804EEFB6814E9FB6824EAFB6834D4
:10038000DDF80480EEFB6865E9FB68B5EAFB68050B
:10039000DDF81480ECFB6815EEFB6825E9FB683599
:1003A000EAFB68450F96DDF80880AEFB0876E9FBAE
:1003B0006806EAFB6816DDF81880ECFB6826EEFBA1
:1003C0006836E9FB6846EAFB6856DDF80C80ECFB12
:1003D00068B7EEFB6807E9FB6817EAFB6827DDF8FA
:1003E0001C80ECFB6837EEFB6847E9FB6857EAFBCB
:1003F000686708B000BD00BF2DE9F14F87B0FFF777
:100400004FFFDDF81C8008F1200888E8FF00FFBCE2
:1004100087E87F08BDE8F08F00B591E89857A3FB07
:1004200003520195A3FB0401E3FB6420E3FB671087
:100430000292A3FB0752E3FB6802E4FB6415E3FBB3
:100440006805E3FB69250391A4FB07B6E3FB692676
:10045000E3FB6A56E4FB670BE4FB682BE3FB6A5B98
:10046000E3FB6C6B0490A4FB0810E4FB6950E3FB16
:100470006C60E3FB6EB0E7FB6721E4FB6951E4FBD2
:100480006A61E3FB6EB1E4FB6E010592A7FB0832E3
:10049000E4FB6A62E4FB6CB2E4FB6E02E7FB6E1203
:1004A000E7FB6853E7FB6963E4FB6CB3E7FB6C03B2
:1004B000E7FB6E13E8FB6E230695A7FB0954E7FBE9
:1004C0006AB4E7FB6C04E8FB6C14E8FB6E24E9FB00
:1004D0006E34E8FB6865E7FB6AB5E8FB6A05E8FB94
:1004E0006C15E9FB6C25E9FB6E35EAFB6E4507965A
:1004F000A8FB0976E8FB6A06E9FB6A16E9FB6C26AD
:10050000EAFB6C36EAFB6E46ECFB6E56E8FB69B71D
:10051000E9FB6907E9FB6A17EAFB6A27EAFB6C3724
:10052000ECFB6C47ECFB6E57EEFB6E6700BD00BF4B
:100530002DE9F14F87B0FFF76FFFDDF81C8008F160
:10054000200888E8FF00FFBC87E87F08BDE8F08F3F
:1005500030B44FF0000310F8014B11F8015B013A81
:1005600084EA050443EA0403F5D1A3F101034FEA49
:10057000D37030BC704700BF4FF0000310F8012B60
:10058000013943EA0203F9D1A3F101034FEAD37021
:10059000704700BF30B411F8014B12F8015B6C409A
:1005A00000F8014B013BF6D130BC70472DE9F00754
:1005B00091E8F807B2E802105B1854EB0C04B2E8BB
:1005C00002104D4156EB0C06B2E802104F4158EBB9
:1005D0000C08B2E8021059EB01095AEB0C0A8941E8
:1005E000B3F1FF3374F1FF3475F1FF3576F1000696
:1005F00077F1000778F1000879F101097AF1FF3A03
:1006000051F100015B184C414D4156F1000657F184
:10061000000758F1000859EBD1795AEB010A80E83C
:10062000F807BDE8F00770472DE9F00791E8F807F3
:10063000B2E802105B1A74EB0C04B2E802108D41B0
:1006400076EB0C06B2E802108F4178EB0C08B2E8AA
:10065000021079EB01097AEB0C0A89415B184C41D5
:100660004D4156F1000657F1000758F1000859EBCB
:10067000D1795AEB010A80E8F807BDE8F007704726
:1006800018EB040859EB05095AEB060A5BEB070B5C
:100690005FF0000C4CF1000C18EB050859EB060953
:1006A0005AEB070A5BEB070B50EB0C005FF0000CFA
:1006B00051EB0C0152EB0C0263414CF1000CB8EB16
:1006C000070879F100097AF1000A7BEB040BA841D5
:1006D000B141A241B3416CF1000CBBEB050BB04141
:1006E000B941AA41BB416CF1000C4CF001068CF001
:1006F000020718EB060859EB6C095AEB6C0A7BEB06
:100700006C0B70EB6C0471EB6C0572EB670653EBD2
:100710006C076CEB6C0C18EB0C0059EB0C015AEBF2
:100720000C025BF1000354F1000455F1000556EB97
:10073000DC7657EB0C0770472DE9F14F87B0FFF7D8
:10074000AFFDDDF81080DDF81490DDF818A0FFF79C
:1007500097FFBDE8000FFFF793FF03B05DF8048B30
:1007600088E8FF00BDE8F08F2DE9F14F87B0FFF773
:1007700053FEDDF81080DDF81490DDF818A0FFF7C7
:100780007FFFBDE8000FFFF77BFF03B05DF8048B30
:1007900088E8FF00BDE8F08F2DE9F347C41D2E4D1A
:1007A0000E1E4FF0000824F007042B788DF805305A
:1007B000074601A90CBF204640468DF8048000F092
:1007C0008BFB2B786A78134404445FFA83FAC146A2
:1007D0005FFA88F39A4535D8E01C20F00304002E18
:1007E00049460CBF2046002000F03AFC95F8263020
:1007F00020446BB1697A59B1033020F00304002E14
:100800004FF025020CBF2046002000F09DFC204444
:10081000297B71B195F826305BB16B7A4BB107300B
:1008200020F00704002E0CBF2046002005F018FB26
:100830002044AB6A13B106B9A8622830C01B02B0CD
:10084000BDE8F0872B7AEA79A97968790CF0D8FAB3
:1008500008F101088144BBE7700800208FB572B62B
:10086000194BDD6AE5B9BFF34F8F1849184BCA68B9
:1008700002F4E0621343CB60BFF34F8F00BFFDE78C
:10088000B4FBF6F4DAB20133002CF9D102F1100313
:100890006B440A2603F80C4C32B901A8A847E2E7DA
:1008A000044600230A26EDE7531E04AC54FA83F4F1
:1008B000DAB2C3B2B3FBF6F706FB1733303304F8F2
:1008C0000C3CB0FBF6F0E7E77008002000ED00E01C
:1008D0000400FA051FB5104B1A7A8DF80920DA7951
:1008E0008DF8082002A89A795B79ADF80C20ADF854
:1008F0000A3004F0B5F818B1B5210320FFF7AEFFB8
:10090000012301A88DF804300DF038F908B1B921A0
:10091000F3E705B05DF804FB7008002038B5044625
:1009200088B30BF075F810B94FF0FF3038BD07F001
:10093000F9FEB0F5FA7FF7D8154D1648EC620024A1
:1009400000F0C6F926222146284685F8304085F871
:10095000314085F82640AC620BF098FA01232B70E9
:100960001B236B7140F21B33EB8040F202332B816F
:1009700008232B73EFF3108572B600F01BFC2DB922
:1009800062B62846D2E76FF01500CFE72046CDE7E4
:1009900070080020D508000010B500283BD1224C7B
:1009A00094F83030002B33D161B1002A36D00139B0
:1009B000062930D8DFE801F0042F112F1F2F270060
:1009C0001378237001210020FFF7E6FEB0F5803F89
:1009D00027DA012384F8313010BD9378F3B1D3784E
:1009E000E3B113781A2B19D953781A2B16D9136837
:1009F000C4F80530E6E7137894F826200AB1012BF5
:100A00000CD96372DEE71388FF2B07D82373D9E76D
:100A10004FF0FF30E0E76FF02C00DDE76FF01500DE
:100A2000DAE76FF00B00D7E77008002070B50D46CD
:100A30000646F0B1E9B111F007041AD100F0A0F8B0
:100A4000D0B130460BF090F80D4E214686F83200BA
:100A50002846FFF7A1FE0EF0C2FA96F83200B16AFE
:100A600004F084F8FFF736FF012386F83030204683
:100A700070BD6FF01500FBE74FF0FF30F8E700BFE7
:100A80007008002010B5084C94F830302BB104F0F9
:100A900089F894F832000BF083F80CF0BFF90020CD
:100AA00084F8300010BD00BF7008002050B1074B23
:100AB00003F1140253F8041B40F8041B9342F9D1CC
:100AC000002070476FF01500704700BF64020200FD
:100AD00038B5084D95F831304BB995F8304034B9F8
:100AE00004F028F8012385F82630204638BD4FF061
:100AF000FF30FBE770080020074B93F8312010B55A
:100B000032B993F830401CB903F0DCFF204610BD29
:100B10004FF0FF30FBE700BF70080020074B93F851
:100B2000312010B532B993F830401CB90DF02FF8D0
:100B3000204610BD4FF0FF30FBE700BF70080020DB
:100B4000074B93F8312010B532B993F830401CB9F7
:100B50000DF020F8204610BD4FF0FF30FBE700BF3E
:100B60007008002007C8024B83E807000020704788
:100B7000A4080020014B9B68184700BFA408002070
:100B8000024B9868003818BF01207047A408002065
:100B90002DE9F0411B4E031D04463360304604F03E
:100BA0006DFD0228054606D1164920460BF04FFB85
:100BB0002846BDE8F08104281CD1314620460BF0C0
:100BC000ABFBB0F5817F03D372210820FFF746FE0F
:100BD0000028E3D0277894F80280384600F028F8FF
:100BE0000028DBD03E2FE3D1404600F061F800281A
:100BF000DED1D3E70828DBD1024920460BF056FBB3
:100C0000D6E700BFB0080020074B4FF0FF3141F698
:100C1000FF72C3E9001205490022C1E900221F2129
:100C2000C3E90212704700BF00000020B409002091
:100C30003F280CD801380B4BC0F3421200F01F00C4
:100C400053F8223023FA00F000F001007047FF282B
:100C500006D04038C0F34212034B00F01F00EFE70C
:100C60000120704700000020B40900200146074B16
:100C7000006849681A4603C240F48C221A6041F0A9
:100C8000107242F4FF625A60704700BF00000020FB
:100C90000246024B0068516803C37047B409002044
:100CA0000246024B0068516803C3704708000020E9
:100CB0000138064BC0F3421203EB820300F01F0021
:100CC0009B6823FA00F000F001007047000000204C
:100CD000014B1860704700BFBC09002010B5FFF73A
:100CE00093FF0CF084FC034B1B68044603B1984748
:100CF000204610BDBC0900200B880288F0B5C3F364
:100D00000E049EB204F11803C57CC35A05352A446B
:100D10002B4497B213FA82F3013B4288B3FBF7F3FB
:100D200013FB07439BB29A42044A93BF22EA06038D
:100D3000324013439BB20B80F0BD00BF0080FFFF29
:100D400010B5114B00EB41041A786389B3FBF2F341
:100D500003FB0223013A1A44B2F5706F027928BFEF
:100D600000231A448378B2FBF3F0194403FB1020EC
:100D7000091AB1FBF3F003FB101313446FEA43436A
:100D80006FEA5343638110BDC009002010B50F4BBB
:100D9000B8B15A78022A04D040F259111720FFF74F
:100DA0005DFD03225A70026812F0070102D04FF471
:100DB000AF71F3E75C685A6022449A600260D960C0
:100DC00010BD0122C3E901005A70F9E7C0090020F3
:100DD0002DE9F041254E96F801E00EF0FD0CBCF136
:100DE000010F04D040F273111720FFF737FD91F87F
:100DF0000680B8F1080F02D940F27511F4E7CF79F7
:100E000097B34546022D726838BF02257B1D5C00F2
:100E100002EB43036A1E13446D422B408D88454408
:100E2000013DC8F100022A404FF6FE75AA4202D9E0
:100E30004FF4C071D8E7BEF1030F12D106EB80006A
:100E40001C1BC56815B140F28511CDE7C460A770C1
:100E5000228084F803C0087A09682071080CE080B9
:100E6000218107FB02337360BDE8F081C0090020D7
:100E7000F8B5184C6378012B28D0032B04D040F22E
:100E800095111720FFF7EAFCD4E901329A4202D00B
:100E90004FF4CC71F5E7E5680022227095B1AB788C
:100EA0002A7103B12370002640F6FF6706E005EBC8
:100EB000410328465F81FFF743FF0136AB78F1B26B
:100EC0008B42F4D8042363700020F8BD02236068CD
:100ED0006370FAE7C00900207FB50A784B789A4220
:100EE00004460D4604D940F2AF111720FFF7B6FCB7
:100EF000114E009030B17378022B02D00020FFF722
:100F0000EBFF6846FFF742FF0C4A01924FF42A724A
:100F10006B78ADF808200020082201A98DF80A207E
:100F20008DF80B308DF80C00FFF752FFFFF7A0FF94
:100F30007068001B04B070BDC009002039EF0000CC
:100F4000F8B54FF6FF730380184B03EB810305469A
:100F5000D868B8B186780379B3FBF6F206FB123392
:100F6000DBB219460A1D00EB4202B2F90270548846
:100F7000002F09DB0131B1FBF6F206FB1211C9B2F9
:100F80008B42EFD10020F8BDFF29FBD0C4F30E0344
:100F9000C4782B8024B940F2C7211720FFF75EFCEC
:100FA0005380BDE8F8400BF00ABF00BFC009002025
:100FB000094B03EB810310B5DC68014620460BF0BA
:100FC000E0FEFF28014604D02046BDE810400BF0AB
:100FD000F6BE002010BD00BFC00900200F4B03EB80
:100FE000810370B5DC680146064620460BF0C9FE59
:100FF000FF28054610D0014620460BF0E0FEE288AF
:101000002389014643EA0243304698472046294651
:10101000FFF796FE002070BD0320FCE7C00900200A
:1010200038B50E4B827903EB82030446D86808B9C1
:10103000022038BD8278E1799142F9D24B1CE371EC
:1010400000EB41035D89B3F90A30002BF3DBA58087
:101050000BF0B5FE20600020EBE700BFC0090020C8
:1010600070B5044610F003000E4603D04921182045
:10107000FFF7F4FB0BF029FE054624B10348314687
:1010800004600BF022FE284670BD00BFD00900208E
:101090002DE9F04F1E4C85B092462268BDF83CB059
:1010A00098468146BDF838300D461AB95B211820A4
:1010B000FFF7D4FB1A460A21504603930BF098FC25
:1010C0005A460646092140460BF092FC3118074665
:1010D00020680BF025FE039BC9F8000018B92860B2
:1010E00005B0BDE8F08F84192C60D9F8000000939A
:1010F000524631460A230BF02DFC2868CDF838B053
:1011000009234246394605B0BDE8F04F0BF022BC3A
:10111000D009002070B50E4604460BF072FC05465F
:1011200030460BF06EFC044B2A1821461868BDE8C7
:1011300070400BF01FBE00BFD0090020014B1868A3
:101140000BF0E1BDD00900202DE9F7431FFA82F82A
:101150001FFA81F904460F46164625214A464046A5
:101160000BF046FC05465CB125230146CDF8009006
:10117000424620460BF0EEFB034B1C601F715E7174
:10118000284603B0BDE8F083D4090020024B5A7909
:1011900019791868FFF7D8BFD4090020014B1868E7
:1011A000704700BFD4090020014B5879704700BF39
:1011B000D4090020134B012200214FF0FF309A6028
:1011C000C3F80012C3F80803C3F80015C3F80425D8
:1011D0009A60C3F80803C3F80015C3F804250A4948
:1011E0000A4A03F580334FF40040C3F80825C1F8DC
:1011F0008000BFF34F8FBFF36F8FC1F88001C3F83A
:101200000825704700F0004000E100E00000F63FD4
:101210000A461F2302F8033B0448C368C1F80330A1
:101220000369536043699360704700BFE009002081
:10123000024B5A8C02435A845B6A1847E00900202B
:10124000014B00215B6A1847E009002010B5114CE2
:1012500006F034FC06F0AAF8208DFFF7F1FF237E9C
:101260006BB122460C4952F80C3BE3606368536053
:10127000A368936004F1190002220DF051F9E36AAA
:1012800094F82A1094F82B009847002384F8303003
:1012900010BD00BFE009002011120000034B93F8BD
:1012A00030300BB1FFF7D2BF704700BFE00900201C
:1012B00037B5654CA56B95F8B32000238DF8053044
:1012C00094F83C300AB10433DBB295F86C1028B9BD
:1012D000FF2B03D195F86D308B4202D0FF2006F032
:1012E000C9FA95F8A630032B00F29680DFE803F0E8
:1012F0000276798C94F83D30ADF806305348A5F865
:101300005C3003F027FD00284DD0216C8020FFF7D2
:101310008FFF012385F8A13095F8A730216CDB0001
:1013200003F008020B7803F0F303134395F8A820A9
:10133000920002F00402134323F0100203F00303AF
:10134000032B0A706BD1CB78022B68D10023206C61
:1013500002781343037095F8B230002B6FD04378B6
:10136000002B6CD0E06E06F02BFD012384F8883052
:10137000D5E94223216CE06EC4E9202305F0D4FFB7
:1013800095F86D10012006F077FD226C1188A4F805
:10139000991091782E4A012384F89830917084F83E
:1013A000303003B030BD606C0DF105020DF1060167
:1013B0000BF049FB206488B195F8ED3073B99DF8C6
:1013C00005302BB903808370206C01210CF0F1FFF4
:1013D000BDF80610206C0DF06AF89DE71D4B2364E4
:1013E0009AE7B5F85C30606CADF806300DF1050297
:1013F0000DF106010BF027FB206400288CD140F290
:10140000D6212720FFF72AFA104803F0A3FC002872
:1014100082D140F2DF21F4E74FF43B71F1E7606CD9
:101420000BF094FB48B9236C1B7803F00303032BE8
:101430008CD003F0B5FC002888D1102387E706F094
:10144000BFFC05F0B3FF9BE7E0090020200A002065
:10145000790A0020280A002008B5094B93F83020AB
:10146000022A04D040F23D212720FFF7F7F9DA7A6B
:1014700042F00102DA72BDE80840FFF7E7BE00BFA4
:10148000E00900202DE9F7434C4C94F83030A56B6F
:10149000012B06460F4604D040F25C412720FFF79F
:1014A000DDF995F8A0302BB1002185F8A0100420BB
:1014B000FFF7BEFE216C0B7803F00303032B05D16D
:1014C00095F8A63013B90220FFF7B2FE226C13780C
:1014D00003F00303032B03D05378002B5DD10123CA
:1014E00085F8A63095F8B330B3B1D5E94401A36BC4
:1014F00094F83C90C4E920014FF0000893F86D0087
:1015000084F888800BF08CFC2D49CDF800800346D0
:101510004A46012005F0C2FE002E40D1002F3ED0E9
:10152000D4F89C3030469847002838D094F82A30B8
:10153000ABBBA56BD4F8A430C4F8A03095F8B33099
:1015400094F83C0083BBFF2895F86D1003D195F803
:101550006C308B4201D006F08DF995F8B33033B37F
:10156000E06E06F02DFC002384F88830D5E9442392
:10157000E16ED4F8A000C4E9202305F0D5FE0020D8
:1015800006F030FC95F86C10002006F075FC022384
:1015900084F8303003B0BDE8F0830223A0E703B045
:1015A000BDE8F043FFF752BE0430C0B2CBE7D4F839
:1015B000A00006F005FC05F0F9FEE0E7E0090020D8
:1015C000500A0020044B93F8302002F0FF000AB9C3
:1015D000187670470C207047E00900200B4B0C4A2E
:1015E00070B506460D461A60FFF7ECFF18B1DF2113
:1015F0002720FFF733F9074C012104F148000CF0D4
:10160000D8FEC4F8A460E56670BD00BF48000020A5
:10161000E81B0000E0090020024B012283F8A8200B
:10162000704700BFE0090020F0B5734D85B002ACF3
:1016300084E8030095F830100A9F01F0FF0611B905
:101640000AB103B127B94FF4A8712720FFF706F9B3
:1016500094E8030005F1340C8CE80300AC6B6A627B
:10166000C5F89C30EF6285F8A86085F82A6085F897
:10167000A96085F82B6085F898606E842E8506F049
:1016800025F905F093FE94F9700006F0ABF9606A55
:1016900006F088FBE06906F0ABF994F8C30006F0A9
:1016A000CDF994F86C10304606F098FA002800F056
:1016B000A180524B186806F07BFB23696B64636959
:1016C000C5F8AC3094F87B308BB9616F79B1B4F860
:1016D000DA20B4F8A430934209D1B4F8782094F811
:1016E0007A001344A4F8DA30012206F09FFF444E3A
:1016F00004F58C7304F5947718685968324603C270
:101700000833BB421646F7D1D4F82821C5F8892002
:101710005A683C4B5A60AB6B93F8AD2093F86C6001
:10172000253A012A03D993F8AE20252A52D193F8FD
:1017300062322BB1012E03D0012B0CBF01260226F1
:1017400004F13407314638460CF07EFF31460CF088
:10175000ACFCB4F8403094F86D10834228BF0346C7
:10176000384685F83D300CF058FF94F86D1094F829
:10177000B370B4F84860082908BF04210CF095FC48
:101780000FB9043080B2B04294F8B23028BF30466E
:1017900085F83C008BB1012385F88830D4E94223D9
:1017A00094F86C00C5E920230BF03AFB03460020B7
:1017B00013490090FB2205F071FD0120FFF778FD31
:1017C000114BD3F8503523F00803032B06D14FF407
:1017D000FD713AE7042E08BF0826B1E700232B600D
:1017E0006B60AB60B4F8A4306B8023882B8094F8D6
:1017F000C3302B7105B0F0BDE00900204800002087
:10180000500A0020690A00200010004010B50F4C5B
:1018100094F8303083B9FFF719FDA36B93F87B1070
:1018200001F0FF0289B9596F79B1BDE8104093F812
:101830007A00114606F0FABE94F83030012BECD055
:1018400040F20F212720FFF709F810BDE009002022
:10185000014B1876704700BFE00900202DE9F341E5
:101860001F4D8207AC6B06460F4624D5D5F8B03025
:1018700023B940F24D412720FEF7F0FFB5F8B42020
:10188000D5F8A0101846033291F801800AF086FAC4
:101890000DF1020201A9C5F8A000D5F8AC000BF0CB
:1018A0000AFA01980BF0F1F9012238604146D5F8A7
:1018B000AC000BF096F9F3070ED5D4E944320133AE
:1018C00042F10002C4E9443294F8A830012B0CBF65
:1018D0000023012384F8A83002B0BDE8F08100BFE6
:1018E000E00900202DE9FF47AF4C0023CDE902338A
:1018F00094F83030D4F838A0022B07460E4604D0B6
:1019000040F2CF412720FEF7A9FF238D5A0606D4C7
:101910004020FFF795FC238D43F0400323859AF880
:10192000B330002F00F04681ABB105F06DFD05F03E
:1019300051FD80B9D4F8A0305A7862B11B789AF87A
:10194000A820C3F3C0039A4205D1012384F82B30A9
:10195000FFF77CFCF8E0D4F8A0305978A4F8B41074
:1019600009B3D4F8AC000BF012F9C4F8B000238D21
:101970009AF8A72043F480732385D4F8A0301B780D
:10198000C3F380039A4200F0E280A56B95F8A6307D
:10199000ABB3022B11D1606C02A90BF077F828B918
:1019A00040F2CB31AEE7C4F8B010E0E7D5E94232FF
:1019B000013342F10002C5E9423295F8A1304FF0FF
:1019C000000885F8A68093B185F8A18003F0D2F9CC
:1019D00010B940F2E23195E741460820FFF728FCB4
:1019E000D5E94232013342F10002C5E9423295F8AD
:1019F000A730012B0CBF0023012385F8A730238DCE
:101A000043F4806323854FF00008D4F8A0109AF8BF
:101A1000A8200D78C5F3C0039A4240F0B98005F0C4
:101A20000305032DD4F8389000F09380002D40F08A
:101A30009B8099F8A830013B18BF012389F8A83092
:101A4000D4F8A0305B7833B1D9E94432013342F1A4
:101A50000002C9E944329AF8B23093B10123A16B74
:101A600084F88830DAE9422391F86C00C4E9202335
:101A70000BF0D6F9034600204C490090FB2205F0FC
:101A80000DFC002E40F0A58094F8A930012B00F247
:101A9000A080D4F89C3001209847002800F099805D
:101AA00094F82A30002B40F0948094F89930C3F3D6
:101AB0000012DB065FBFD4F8A4301B78C3F3001319
:101AC000C3F10100D4F8B03048BF304623B9B4F8B0
:101AD000B4300BB1002A7CD000287AD1638C002B63
:101AE00077D1FFF7E5FB1DB103A90220FFF7B6FE92
:101AF000B8F1000F04D0B4F809300133A4F809306C
:101B0000002F6AD0B4F805300133A4F80530002363
:101B100084F8A930264804F0DDF8029840B10BF0B3
:101B2000B4F8A16B00234372082201300CF0E6FCEC
:101B3000039B33B1A16B00221A72039810220CF0A0
:101B4000DDFC002E7FF404AF04B0BDE8F087B8469A
:101B50005BE7238D012043F4006389F8A00023850F
:101B6000FFF766FB002564E74B78002BFAD0228D47
:101B7000D4F8B05042F400622285002D3FF46BAFE0
:101B8000FB2B07D894F8A8305BB12020FFF758FB57
:101B9000002560E794F82A3043F0100384F82A30D7
:101BA000F6E73D4645E700BFE0090020500A002067
:101BB000140A00200BB105F05DFC94F8A930013344
:101BC00084F8A930238D002543F400732385A846AB
:101BD00041E706F071F9012685E7B4F807300133D3
:101BE000A4F8073096E700BF59140000E51800007C
:101BF000851400009D120000034B93F85400C31E8F
:101C000058425841704700BF980A00200B460622F0
:101C100003F8032B044AB2F8330092F83520A1F8F8
:101C200003009A70704700BF980A0020024B002200
:101C300083F86820704700BF980A002038B51E4B13
:101C40005A7A0D460ABB1A6DD3F80E10C2F803106B
:101C5000598AA2F807101A6D5B7B13F0FD0F14BFB1
:101C60000123002393702B46132203F8032B134AFE
:101C700002F1200152F8040B43F8040B8A42F9D117
:101C800012781A700023AB7138BD58890021FFF714
:101C90008FF9044620B940F2F9313220FEF7DEFD1B
:101CA000008803F017F820880021FFF797F9002833
:101CB000D9D040F2FD31F0E7980A0020A10A0020B7
:101CC00008B503F045FB014B187008BD100000205B
:101CD000F8B5554C0646D4F8A0000023032E0F4655
:101CE000038041D1314603F08DFB5049D4F8A00068
:101CF0000CF01BFB94F88210D4F8A0000CF029FB28
:101D000094F8753094F84570002B00F08A80FFF746
:101D100073FF002800F0828094F84D30002B7DD0B6
:101D200094F8730003F076FA414B002805461ABF79
:101D3000012705461D46D4F8A00029460CF0E7FA15
:101D4000D4F8A00039460CF0F7FAD4F8A00006F059
:101D500037F8052E07D1236D2A68C3F80A20AA8810
:101D6000DA81236D5F72F8BD052EBED1314603F0D6
:101D700049FBD4F8A0502B7823F0200343EA471105
:101D80002970236DDB69C5F80F30226D536AEB743F
:101D9000190A1B0C6B7529759169908D0CF0C6F9A9
:101DA000A875236DD4F8A0509969986A0CF0C4F90D
:101DB000E875000A2876236DD4F8A05098690CF0D5
:101DC000A2F96876000AA876236DD4F8A0501A8C80
:101DD000EA76120A2A775A8C6A77120AAA77D3F817
:101DE000B620C5F81F2093F8BA3085F82330236D4C
:101DF00095F8242093F8C13022F01F0203F01F034E
:101E0000134385F8243002F015FF95F8243003F0D1
:101E10001F0343EA401385F8243066E794F8700006
:101E200080E7034D87E700BF980A0020130B0020CE
:101E3000DE0A002010B5FFF7B1F90446FFF7B4F948
:101E400081B220460AF0A3FE20B94FF4C3613220CC
:101E5000FEF704FD05F0B4FF002005F0C3FF024BC0
:101E6000062283F8682010BD980A002070B5064647
:101E7000FFF794F90446FFF797F981B220460AF07C
:101E800086FE054620B941F2DB413220FEF7E6FC32
:101E90002B4C94F85430013B012B05D9FFF7ACFED5
:101EA00010B941F2E141F0E77EB128460CF05BFA4F
:101EB00030B194F86830042B0ED841F27141E4E758
:101EC00028460CF068FA0028F3D194F86830042B07
:101ED0001AD841F2D141D8E794F868300A2B02D9D8
:101EE00041F27241D1E794F86830D4F8A42003F1AC
:101EF00080435269053B284652F8233098470E2804
:101F000015D941F2F641C0E794F868300A2B02D99E
:101F100041F2D241B9E794F86830D4F8A42003F133
:101F200080439269053B52F823309847E7E7D4F89D
:101F3000A4301B69BDE8704053F82030184700BF3B
:101F4000980A002008B5074B93F900207F2A04D196
:101F500040F241413220FEF781FC02707F221A706C
:101F600008BD00BF1000002010B504788EB004F04A
:101F70000F04224604A90AF0DEFF05F09FFDFFF7DB
:101F80009FFE042C35D1059B1B4C197894F87B20BF
:101F900091422ED1597894F87C20914229D1997898
:101FA00094F87D20914224D1D97894F87E209142F2
:101FB0001FD1197994F87F2091421AD15A7994F857
:101FC00080309A4215D19DF8212094F882309A42AF
:101FD0000FD10DF10F00FFF7B5FF9DF90F30009302
:101FE00094F8813094F8902094F8711004A800F0CF
:101FF000F7FF05200EB010BD980A002010B50F4A5B
:1020000092F86830042B04D841F2D8513220FEF700
:1020100025FC92F868300A2B02D941F2D951F5E734
:1020200092F86830D2F8A42003F18043D268053BCF
:10203000BDE8104052F82330184700BF980A00202E
:102040000B46182210B503F8032B0F4AB2F83F00D5
:10205000A1F8030092F841209A70CB78012B12D19D
:102060008C8800212046FEF7A3FF60B1204602F0D5
:1020700031FE00212046FEF7B1FF20B140F21941A8
:102080003220FEF7EBFB10BD980A002010B5064C7D
:1020900094F8743033B105F0D5FE05F0A7F80023AD
:1020A00084F8743010BD00BF980A002008B5FFF70F
:1020B000EDFF044B012283F86820BDE8084001F0E1
:1020C00059BC00BF980A002070B5FFF767F80446B6
:1020D000FFF76AF881B220460AF059FD054620B99B
:1020E00040F287613220FEF7B9FB124E0C2300202C
:1020F00086F8683001F060FC336D297893F8B540BC
:1021000004EA511404F0010405202146FFF7E0FD24
:10211000042001F0FBFB18B9BDE87040FFF7C6BF13
:102120002B78C3F3401386F88330336D83F8B540C2
:1021300070BD00BF980A0020F8B5104E104A96F8FE
:102140007230D75C044638460D4605F077FC012115
:10215000252086F8817005F08DFB284605F030FEBD
:10216000012108462CB105F039FD003818BF0120C7
:10217000F8BD05F069FC0120FAE700BF980A0020CD
:1021800058F4010008B503200021FFF7A1FD03204A
:1021900001F0BCFB18B9BDE80840FFF787BF01217B
:1021A000084605F069FE024B0B2283F8682008BD43
:1021B000980A002010B518B1BDE81040FFF776BFAF
:1021C000E9B10F4A92F868300A2B04D841F2A851BD
:1021D0003220FEF743FB92F868300E2B02D941F211
:1021E000A951F5E792F86830D2F8A42003F18043B2
:1021F00092680B3BBDE8104052F82330184710BDE1
:10220000980A00200246054B93F8651029B9196E0B
:1022100019B193F8640006F009BA7047980A0020D3
:1022200070B53F4C94F86830012B06460D4674D8C3
:1022300005F04CFB05F006FE04F0D8FF394805F028
:10224000B7FD394805F0AEFD384805F0D1FB28460A
:1022500005F0B6FD737913B10120FFF7D3FF337991
:10226000032B04D140F645213220FEF7F7FAB3B92B
:10227000032194F8722094F84C000E460132B2FB10
:10228000F6F303EB4303D31ADAB240FA03F3DB07A6
:1022900003D4013911F0FF01F0D184F8722094F9D0
:1022A000580005F09FFB29460120FFF745FF08B9BC
:1022B000002070BD002384F8903094F875300BB383
:1022C000D4E922126FF000439A4208BFB1F1FF3FF8
:1022D00018D00CF00CFFD4E92223904271EB0303D9
:1022E00010D3012002F022FF60B102F0E9FE0546A2
:1022F0000CF0FDFE0E4BA5FB03351B1845EB01054D
:10230000C4E92235022384F868300A4BD3F85035EB
:10231000032BCDD140F65321A6E70C20C9E700BF1F
:10232000980A0020C400002055555500D6BE898E5D
:1023300040420F000010004038B5FEF72FFF044662
:10234000FEF732FF81B220460AF021FC054620B993
:102350004FF4A1613220FEF781FA0AF0D1FD00208E
:1023600001F0D4FA18B9BDE83840FFF79FBE174C0A
:1023700094F86830022B03D029460020FFF7DCFEDA
:10238000E81C02F0C1FE84F8740020B104F014FFD0
:10239000402005F04BFDFFF72FFC18B994F854309E
:1023A000022B03D10121002005F066FD40F6080351
:1023B000A4F87030002384F87730A4F8783084F8DB
:1023C0009030052384F8683038BD00BF980A00209B
:1023D00008B50020FFF716FF084B93F86830012B73
:1023E000DAB203D9022A05D00C2008BDFFF75EFE41
:1023F0000020FAE7FFF7A0FFFAE700BF980A0020E5
:102400002DE9F047044692B0FFF75AFC267806F013
:102410000F062046324608A90AF08DFD099D954C0D
:1024200045B39DF83130012B3AD16B7903F0C003ED
:10243000A3F140056B426B4194F874204AB143B15B
:102440000BF073FD012384F8700084F8710084F8A8
:10245000773094F87000082824D109999DF831004C
:102460000CF013FC844A099905469DF8310002F0EE
:102470000BFE48B3062E94F84D3033D8002B18BF0E
:102480001D46099B84F8795003B39DF8312084F8E8
:1024900082201A68C4F87B209A88784B9A8015E0CD
:1024A0000023C9E706AA0DF1170102F00FFE20B9BB
:1024B00040F6FC413220FEF7D1F99DF8170006A93D
:1024C0000CF0E3FB0546D5E784F87900062E00F210
:1024D000CB80DFE816F05F00D7000900C900C90013
:1024E000C9002D000025CCE705F0E8FA94F8793012
:1024F00033B90524FFF7CAFD204612B0BDE8F087C6
:1025000094F85430013B012BF3D806A8FFF71AFDCD
:102510009DF91830029394F88130019394F871304A
:10252000574A00930221FF2308A800F0CDFCE0E702
:1025300094F87930002B00F0978094F85430022BF7
:1025400016D106A8FFF7FEFC9DF91830029394F807
:102550008130019394F871300093494AFF2306219A
:1025600008A800F0B1FC002384F890300B24C1E7E8
:10257000012B79D106A8FFF7E5FC9DF918300293ED
:1025800094F88130019394F8713000933C4AFF2312
:102590000621C9E794F87930002B65D094F85430BF
:1025A000022B13D106A8FFF7CDFC9DF9183002933A
:1025B00094F88130019394F871300093304AFF23EE
:1025C000002108A800F080FC0123CDE7012B0FD1EA
:1025D00006A8FFF7B7FC9DF91830029394F88130F4
:1025E000019394F871300093254AFF2300219BE763
:1025F000FFF702FB00283AD0099B94F85A2019787B
:10260000914225D1597894F85B20914220D1997854
:1026100094F85C2091421BD1D97894F85D209142C6
:1026200016D1197994F85E20914211D15A7994F813
:102630005F309A420CD19DF8313094F85920981AA5
:102640004342434194F85620012A03D10C2451E718
:102650000023F7E7002BF9D194F87330082B03D04F
:1026600094F870209A42F1D005F028FA41E74FF42F
:102670006A611FE7980A0020080B0020130B002056
:10268000DE0A00209DF8323094F8755094F8798075
:10269000012B85F0010579D10A9B5E7906F0C00611
:1026A000A6F140014E424E41FFF7A6FA00286FD036
:1026B00094F84D30002B6BD094F87370082F6AD0CB
:1026C000384602F0BDFC002818BF0546002E64D035
:1026D00038460A9902F05EFD074694F845A0002F9F
:1026E0005DD04AF00209FFF787FA002860D0099B05
:1026F00094F85A201978914253D1597894F85B2074
:1027000091424ED1997894F85C20914249D1D97880
:1027100094F85D20914244D1197994F85E20914259
:102720003FD15A7994F85F309A423AD19DF831609E
:1027300094F85930F21A5642564194F87030082BEA
:1027400031D094F87390A9EB0303D3F1000949EB5E
:1027500003095FBB3DB10A9B9DF8322030495046CA
:102760000BF0AEFB0546B8F1000F3FF47DAF94F8D7
:102770005630012B06D0002B7FF476AF56EA0903C2
:102780003FF472AF002D7FF461AF6DE700268BE759
:1027900094F8707092E700279FE737469DE7D1468F
:1027A000A1E70026C9E74FF00009D2E70125DAE7E3
:1027B00005F084F9B8F1000F3FF49BAE0A9B9DF839
:1027C0003220174994F845000BF07AFB00B97FB12D
:1027D00006A8FFF7B7FB9DF91830029394F88130F3
:1027E000019394F8713000934B460D4A01219BE60A
:1027F00094F85530023B012B3FF67BAE002E3FF4A0
:1028000078AE06A8FFF79EFB9DF91830029394F866
:102810008130019394F871300093FE23E5E700BF07
:10282000DE0A002073B53E4CFFF730FCFFF7FEF9DF
:1028300000236372236D1A88986962810BF063FC30
:10284000236D20841A8C5B8CA3846D464FF47F43E8
:10285000E384D4F8A00062844FF6FF7329462385F1
:102860000BF05CFD94F8753003B3D4F8A0301B78FE
:102870005B061BD59DF8053003F0C003402B15D136
:1028800095E803006061218394F87100254A0828C7
:1028900002F10C0502F16D0634D0511E02F016FC57
:1028A00048B941F22C513220FDF7D8FF1E4A0023CF
:1028B00063619380E8E7637B43F002036373D4F8BA
:1028C0007B30C4F81A30B388AB8094F95810206D6F
:1028D0000BF015FC1549124802220BF00FFE236D78
:1028E00013491A88A4F8332093F8B530114884F8B6
:1028F000353002220BF014FE022002B0BDE8704019
:1029000001F05AB894F882306373D4F87B30C4F87D
:102910000E30B38893800023C4F81A30AB80D4E71C
:10292000980A0020A60A0020AC0A00203D1C0000E6
:102930000D1C0000C20A0020034B93F83E00003833
:1029400018BF0120704700BF980A0020024B187A78
:10295000003818BF01207047980A002010B5094CB4
:10296000236D23B940F22B413220FDF777FF02227D
:1029700062721B880449638120460BF0BFFD00236F
:10298000236510BD980A00203D1C0000024B034A3D
:10299000C3F8A420704700BF980A0020A8000020B8
:1029A00070B50446FEF7FAFB0546FEF7FDFB81B263
:1029B00028460AF0ECF8014620B940F6962132206C
:1029C000FDF74CFF034BD3F8A43020461B68BDE84D
:1029D00070401847980A0020024BD3F8A4305B6877
:1029E000184700BF980A0020014B83F84C0070473D
:1029F000980A002010B5104C0B46114694F844205C
:102A0000023A012A0AD994F8443013F0FD0FBDE8C8
:102A1000104014BF0120002002F000BA0028F2D1BB
:102A200013F0FD0F14BF012000200BF074FA0828EA
:102A3000E9D0012010BD00BF980A0020044B93F894
:102A4000443013F0FD0F14BF0120002002F0E6B95E
:102A5000980A0020014B83F844007047980A002030
:102A600038B5184D95F8443013F0FD0F14BF012010
:102A7000002005F1460185F8450002F0B7F995F808
:102A80004430023BDBB2012B94BF0123002385F8C5
:102A9000753015D802F014FB04460CF028FB0A4BE5
:102AA000A4FB03341B1844EB01040020C5E92234C5
:102AB00002F03CFB20B940F654313220FDF7CEFE47
:102AC00038BD00BF980A002040420F00054B10F0AF
:102AD000FD0F0CBF0122002283F84D2083F8550022
:102AE000704700BF980A0020002810B50C4C0B4618
:102AF00011460CBF0122002284F84D204FF008023D
:102B000084F8560084F8732008D113F0FD0F14BF29
:102B1000012000200BF0FFF984F87300002010BDA5
:102B2000980A002008B521B940F673313220FDF72C
:102B300095FE0A4B83F859000A68C3F85A208A8820
:102B4000A3F85E201A6D93F845105172D3F8461021
:102B5000C2F80A10B3F84A30D38108BD980A0020A1
:102B6000034B032883F8540008BF19650020704701
:102B7000980A0020024B83F876000020704700BFBF
:102B8000980A002008B5FFF737F8094B28B193F8E9
:102B90005600431E5842584108BD93F85420013A4C
:102BA000012AF9D893F8550000F0FD00F1E700BFC5
:102BB000980A0020014B93F854007047980A0020AF
:102BC00008B5FFF719F80A4B68B1012283F83F20D6
:102BD0001A6D1288A3F84020BDE808400549064850
:102BE00002220BF08BBC83F83F00A3F84000F3E710
:102BF000980A002041200000CE0A002010B503787A
:102C0000DB0704460BD40949A37881F84430E07807
:102C1000FFF75CFF237981F84C30002010BD40782D
:102C20000021FFF79DFF0028EDD0F7E7980A00206C
:102C300037B51E4C94F86830012B054602D094F845
:102C400068307BBBFEF7A2FA0AF073F9FFF71EFAB1
:102C500042220021154809F019F9002340F2071219
:102C600084F8543084F8723084F8585084F89030E6
:102C7000A4F84C20FF2284F8652084F86430236691
:102C800084F865300A4BD3F803000090DB798DF8A7
:102C900004306846FFF7B2FF28B140F6A411322095
:102CA000FDF7DCFD0C2003B030BD00BF980A00200A
:102CB00058F401000C4B10B5C3F8A000D3F8A430B1
:102CC0000C4623B940F6B3113220FDF7C7FDFEF7DD
:102CD000ADFF0AF02EF92046FFF7AAFF10B140F62B
:102CE000B911F1E710BD00BF980A002000487047F5
:102CF000300B0020094B1A6E72B1FF22002083F8BE
:102D00006520186693F8642083F8650001239340DA
:102D1000034AC2F8083570470C207047980A002013
:102D200000F001402DE9F0438DB00C460646FEF759
:102D300035FA804609F095FF054620B94FF4E57154
:102D40003320FDF78BFD014601AA404609F097FFAD
:102D50000746FEF729FA83B29F4202D04FF4EA7188
:102D6000EEE7019802A90AF016F9284609F08DFF4E
:102D7000864202D040F2DF11E2E7E21C00F10903D3
:102D800000F12501164653F8045B42F8045B8B42C0
:102D9000F9D1C37C13F0100F04F11F0709D05A07B3
:102DA0000ED49DF8185005992A46384608F0F6FFCB
:102DB000E572657B04232370EB0604D45121BFE741
:102DC0000023E372F5E73D4B31461E4651F8042BD4
:102DD00043F8042BB942F9D1E77A39483A4608F06A
:102DE000DDFF15F00401DFF8DCC004F1060E04F18C
:102DF0000D0023D0F37CFE2B20D1717861713578E2
:102E0000D6F80210E570C4F806101127BCF80410BB
:102E1000277001252571AEF8041023737369C4F877
:102E20000D3096F90920BCF816308380E2744046D4
:102E300009F02DFFD0BB40F21D2181E796F80090EC
:102E400084F8039007F10A0313FB09F3023363705C
:102E500073786371D6F80230C4F806300322BCF8E8
:102E600004302270AEF80430E319767A27735E736B
:102E700015F0080305D0042323711F2F11D9A121B8
:102E80005EE705F00305032DF6D009B10123F3E752
:102E9000022D01D12571F0E70DB92271EDE79E21D8
:102EA0004EE707493A4608F079FFC0E7002140465F
:102EB00009F011FE0DB0BDE8F08300BF400B00200B
:102EC0005C0B0020420B00202DE9F84F8B46174683
:102ED0001D469DF828A09DF82C809DF9309006464F
:102EE000FEF75CF9044609F019FE012873D020466C
:102EF00009F0FAFF1C2204460021093008F0C6FF41
:102F000001236372BBF1060F55D8DFE80BF00443D1
:102F1000495454544D00E37C23F0130343F013034E
:102F2000E37404F10A0304F10B025146304609F040
:102F3000BFFF0123E27C63750023A37552074FF0A6
:102F4000FF0384F81290E3753AD5AA1E012A8BBFBD
:102F5000B2683A681168C4F81D2088BFC4F81D1013
:102F600004F11D0394BFBA8892889A8025777F2345
:102F700084F8233084F82480FEF710F90546FEF724
:102F800013F9012281B2284609F02BFED0B94FF483
:102F9000567112E0E37C23F0150343F01503BFE7FD
:102FA000E37C43F01003BBE7E17C21F0120141F028
:102FB0001201E174B5E74FF44E713320FDF74EFC7A
:102FC0002377D4E70023237220460449BDE8F84F55
:102FD00006220BF093BABDE8F88F00BF252D000044
:102FE0002DE9F047894615461F469DF920A08046E9
:102FF000FEF7D4F8044609F091FD012843D020469D
:1030000009F072FF044601261C220021093008F055
:103010003DFF04F10B02404604F10A034946667283
:1030200009F046FFE17C84F812A045F01A0521F072
:103030001B01FF2305F01B050D43E37523774FF0BC
:1030400000087F23E57484F82330667584F81680C1
:1030500084F82470FEF7A2F80546FEF7A5F832467C
:1030600081B2284609F0BDFD20B940F285313320F8
:10307000FDF7F4FB84F8088020460449BDE8F047DA
:1030800006220BF03BBABDE8F08700BF252D0000FB
:1030900008B509F09AFF024B9B68184408BD00BFB1
:1030A000800B002010B5054C237B33B104F050FD9C
:1030B00007F094F800232373637310BD800B002086
:1030C000114808B590F8243073B10378052B04D06B
:1030D00040F24D212120FDF7C1FB036E73B1BDE825
:1030E0000840403000F082BF0378052B06D1036E04
:1030F00023B9006A00F5087000F00EFFBDE8084033
:10310000024800F009BF00BF800B0020C00B002068
:1031100010B5FFF7EFFD0B4B002283F824209A70C7
:103120001A621A70FFF7E2FD0446007807F01AFAF7
:1031300020B940F286312120FDF790FB2023237037
:1031400010BD00BF800B002010B50A4C237823B9B6
:103150004FF4B8712120FDF781FBFFF7B1FFA37891
:1031600023B194F824300BB9FFF72AFDBDE81040D5
:10317000FFF7CEBF800B002010B50D4C2378042B39
:103180000DD163680A225343226C801A834206D908
:10319000FFF77EFF6368984208D0022010BDFFF75A
:1031A00077FF63689842F8D00120F7E70320F5E73E
:1031B000800B00202DE9F0410BF099FF224E0746CD
:1031C0008846D6E90401FFF7D7FF054608F074F8F2
:1031D0006E2836D9431CD6E90C1414D04318A342E8
:1031E000D6E90A3228BF601ADB1B62EB0802012B0A
:1031F00072F100044FF0000421DB984274EB0202EC
:1032000000DB18460C18641A41F28830844228BF4B
:1032100004460BF06CFFC7F1B10303449C4210D38A
:103220002946204608F096F858B9336BB06B234412
:1032300020443363B063BDE8F04107F0E3BF2046AC
:10324000E0E70020BDE8F081800B00202DE9F04F81
:103250008FB0DFF8EC820593154681468B460BF064
:1032600046FFD8F80830039107460293FFF710FF96
:10327000D8F804600490002D00F09A81831B5D4211
:103280005D41BBF1000F00F0F48017F5FA6306937F
:10329000039B43F1000A00F085FE98F80020052A00
:1032A000044634D1D8F820200021D2F8280200F0BA
:1032B00083FE01468C42D8F8200010D000F508703B
:1032C000079100F045FE00220799C8F860209C4A4B
:1032D000136A9BB940F28B712120FDF7BFFA00F50C
:1032E0000872C8F86020D0F82802D8F84820824236
:1032F0002CBFC8F84820C8F84800E8E719B3886828
:10330000D1E90021121841F10001C3E98821DFF859
:103310003082214608F1400000F01AFEC4B1D4E921
:103320000021A068D8F80480069B8018CDE9003AF7
:1033300041F10001424609F0A4FE8045034608D24F
:1033400040F2EA31C8E700200021C3E98801DEE746
:103350002346069A7A489C1843684AF10001E31A0A
:1033600061F10002C0E91032059B002B76D14FF0CD
:10337000FF326FF00043C0E90A23DFF8C4810591F2
:10338000012004F0C1FED8E90A3205991B1B62EB4B
:10339000010200F52340012B4FF47A7A00F1A100DD
:1033A000B0FBFAF000F2372A72F100004FF0000093
:1033B000C0F2F580DDF808C09C4570EB020200DB2E
:1033C0000293029AD8F808309A4228BF1A46134648
:1033D000C8F83420BBF1000F01D0C8E90441049AB9
:1033E0000291B24208BF53460126C8F83030C8E9FE
:1033F000064189F80B6009F0D3FD0299A9F808008D
:103400002046FFF7B9FE89F80A00D8F83030029953
:10341000C9F80430002D00F0C68089F80060D8E9B2
:103420000A01039BC01B61EB0301B04271F1000371
:103430004FF00003C0F2B580424F87428B4100DB62
:103440000746A7EB0A07C9F81070D8F834005045B2
:1034500034BF002001200FB0BDE8F08FDDF814E08C
:1034600042F21073A4460A46EEFB03C2C0E90AC248
:1034700083E7049BB34246D1012004F045FED8E91E
:103480000A236FF000418B4208BFB2F1FF3F00F00A
:10349000828000F52344A1344FF47A70B4FBF0F439
:1034A00004F237248DF820B0099409F079FD012544
:1034B000ADF828008DF82B5009F072FD00F20710CE
:1034C000039B80B2C01943F10003CDE90C03022332
:1034D00008A88DF82A3007F077F810B94FF4A361E7
:1034E000FAE6D8E90A300C990D9A5B1A60EB0202F1
:1034F0001B1B62F10003002B029B0399B8BF002342
:103500003C46029339E7D8E91031FC1AF318B4FBB2
:10351000F6F406FB04F441F10001E41841F1000562
:1035200009F03EFD00F20710A4EB070A80B28245C5
:103530000AD2D8F80400041945F100015D461CE7E1
:10354000800B00200040420FD8F8343009938DF8EA
:1035500020B009F025FDD8E910210123D8F8044056
:103560008DF82B30D8F81830ADF82800981AB0FB39
:10357000F4F06043801841F10001CDE90C01FFF740
:10358000FBFDD8F804108DF82A0008A80AF05CFDAD
:10359000DDE90C41D2E703993C460125EDE60290B6
:1035A0000FE71F464DE7C9E9044189F800504CE791
:1035B000BBF1000F7FF469AED8E91052D8F808309B
:1035C0000293D8F810307019A7EB0504B4FBF6F499
:1035D00006FB04F442F100015B1B2418B3FBF6F375
:1035E00006FB03F341F100015B1942F10002C8E957
:1035F0001032A3E710B50C4686B0FFF777FB082C16
:1036000070D8DFE804F005304747426F5E676C0012
:10361000364C012323736378002B50D1007806F0D9
:10362000BDFF236CC4E90401C01A6368984234BF2B
:10363000012300238DF8043068462CBF01230023AA
:103640008DF80530FFF7ACF920B140F2C31121200D
:10365000FDF704F9206BAF38A06307F0D3FD70BB12
:1036600040F2C711F3E7214B5A7832B109F016FC4A
:1036700006B0BDE81040FFF715BD01225A73FFF7F1
:10368000ABF9E0B14FF4EB71E1E706B0BDE81040F3
:1036900004F01ABC00230478012219466846FFF79B
:1036A000D5FD38B16946204607F0CEF838B940F26A
:1036B000CF71CCE70D4B01229A70FFF745FD06B0A4
:1036C00010BDFFF777FD0028F9D106B0BDE8104026
:1036D00009F0E2BB06B0BDE81040FFF735BD40F28F
:1036E0000521B4E740F20921B1E700BF800B0020BB
:1036F00070B5194CFFF7FAFA2378042B054602D06F
:103700002378052B26D101236370237B9BB928786E
:1037100007F00AFB287807F051FFFFF7D1FC0023E0
:10372000637094F82430002B0CBF00240C24FFF7A6
:10373000EFFC204670BDEFF3108672B6237B2BB1F1
:10374000637B1BB109F0AAFBFFF7ACFC002EE1D1B3
:1037500062B6DFE70C24ECE7800B0020F0B51E4DCD
:103760002B7887B004460F468BBBFFF7BFFA94F85F
:1037700048322C62064603F0FF0423B14FF43C713B
:103780002120FDF76BF805232B706C7085F8244021
:10379000FFF77EFC2146A864104806F0B9FE2028F9
:1037A000307002D140F2FE21EAE73B462246012179
:1037B0006846FFF74BFD10B940F20131E0E7307881
:1037C000694607F041F818B940F20231D8E70C24F5
:1037D000204607B0F0BD00BF800B0020F53500008B
:1037E00070B50F4D2B7803F0FF0423B14FF44471F3
:1037F0002120FDF733F8067816F0010614BFD0E952
:10380000013433466B602B6540F27123A5F85430C8
:1038100009F0DBFB0EB1241AAC60002070BD00BFC4
:10382000800B00201FB50B4B1B780BB1FFF760FF1F
:10383000094A07CA01AB83E807001846FFF7D0FF23
:1038400020B140F23E212120FDF708F805B05DF8D7
:1038500004FB00BF800B002060F4010008B5682263
:103860000021084808F012FBFFF740FA20230370FC
:10387000FFF7D8FF20B140F227212120FCF7EEFF0F
:1038800008BD00BF800B0020F0B5074687B059BBCC
:10389000184E337803F0FF0453BBFFF727FA0423D5
:1038A000054633707470FFF7F3FB2146B06412488D
:1038B00006F02EFE2028287004D140F25631212037
:1038C000FCF7CCFF3B46224601216846FFF7BEFCD1
:1038D00010B94FF45671F2E72878694606F0B4FF44
:1038E00018B940F25931EAE71124204607B0F0BD7B
:1038F0000C24FAE7800B0020F5350000024B1B6A10
:103900000360FFF7F5BE00BF800B002070B50546D1
:103910000BF0EDFB0446062D1DD8DFE805F0211C59
:103920001C04241C27004FF45772114E3069336B6E
:10393000241ABF3B1444A3428CBF0125002508D89C
:10394000FFF738FC28B1356BBF3DAC422CBF0025DA
:103950000125284670BD40F2C9312120FCF77EFFC9
:103960004FF40472E1E74FF4FC72DEE70125F0E763
:10397000800B002010B50F4C237B86B0ABB1637871
:103980009BB91A4619466846FFF760FC58B1FFF725
:10399000ADF96946007806F057FF30B940F2B471CE
:1039A0002120FCF75BFF0123A37006B0BDE81040A7
:1039B000FFF778BB800B002001282DE9F3413F4C35
:1039C00005D9831E012B5FD940F6AC012EE0D4E966
:1039D000047803F049FF236A40F201120546A3F878
:1039E0006C20206AFF2283F86E200021343040F2E0
:1039F000A76601F015FFBF1948F100087E19256A76
:103A000048F10007D5F8188000F0C6FA04F1400329
:103A100083420ED0CDE900674246D5E9880109F01E
:103A200030FB8045054605D240F2FD312120FCF7F0
:103A300015FF0025A36ED4F82080AB42D8F81810EB
:103A400014D90D44C8F82810D4F820800520D8F8DF
:103A500018100AF062FB236AA8F82C009A6A998D64
:103A6000AA1A8A4208D340F63D01DFE728460AF049
:103A700069FBC8F82800E7E7AD1947F10007C3E97B
:103A8000885702B0BDE8F081012384F82430C31EBA
:103A90005842584184F82500206A002580F8485291
:103AA0002378052B02D040F64F01BFE709F0C1FA99
:103AB000256202B0BDE8F041FFF7F4BA800B0020A8
:103AC000014B1878704700BF800B0020F7B51E4EE1
:103AD000012333700027CDE900776846FDF7A0FA8F
:103AE0000546C8B10023337003B0F0BD90F8490219
:103AF00007F064FD94F8490284F8485206F032FD5C
:103B000010B94FF4D8711BE0202384F8493204F532
:103B1000087000F001FADEE7009B002BDDD093F87F
:103B20004822002AD9D018884FF6FF739842D9D07E
:103B30002946FDF73DFA04460028D7D140F2C111CD
:103B40003520FCF78BFE00BFEC0B002038B50C4B8A
:103B500090F86C20054690F86D0033F8124004F0A0
:103B6000D3FA04F29D7404444FF47A712846B4FBEE
:103B7000F1F1BDE8384001F583710AF0A8BD00BF3E
:103B80006CF401002DE9F8430C46054691461F46AA
:103B900009F006FA94F8AD8006461FB101212046CF
:103BA00003F042FA94F84832032B40D8DFE803F0E0
:103BB000023C363CB9F1000F04D140F20A21352015
:103BC000FCF74CFE012384F848322046FFF7BEFF85
:103BD0004FF00009D4E9883219EB030342F10002E7
:103BE000C4E98832C5E9043200232B702E8194F891
:103BF000AD600B3EF3B21A2B9FBF3A4EDE40F64348
:103C000006F0010688BF0126204686F001060BF06B
:103C1000B7F900B176B10023AB7211E00323D4F8F9
:103C2000509284F84832D5E7D4F81890D2E740F2A1
:103C30004221C4E794F84832012BDAB22BD1AA72A0
:103C40000123EB7204F134000AF0E5FC6860002FF8
:103C500046D0A8F10D08B8F1010F41D949462846D0
:103C60000AF0F2F91FFA80F820460BF089F90746AE
:103C7000D6B9804518D3AE72D4E9883109FB00F279
:103C80009B1841F10001C5E90431B9F1000F04D1DD
:103C90004FF4217193E70223BEE7494628460AF014
:103CA000D3F938441FFA80F84146204603F0BCF9A6
:103CB000D5E90423C4E98823636F8BB1B4F8DA1023
:103CC000B4F8A4305B1A1BB2002B09DDB4F87820DD
:103CD0001344013BB3FBF2F313FB0213A4F8DA30F5
:103CE000BDE8F883050000042DE9B043044618B987
:103CF000F5213520FCF7B2FD082962D8DFE801F094
:103D000005424A4A466150575E0090F848320BB966
:103D1000FD21EEE702F066FF002855D009F055F9C5
:103D2000DFF8A880A56998F8013000F207191FFA9A
:103D300089F91BB9636B9D4228BF1D4604F134000D
:103D40000AF069FC074609F040F90744022007F031
:103D5000B3FAED1B25EAE575854228BF0546022129
:103D6000284607F0F7FA00B92F444A46394620465C
:103D70000AF09DFCC8F80400A06907F043FA18BBDC
:103D8000EF21B6E7BDE8B0430BF0C8B8BDE8B043DB
:103D900004F09AB8BDE8B0430122002109F01BB934
:103DA000012004F05FFCBDE8B04309F047B890F88B
:103DB0004832042B08D040F223119AE74FF4947153
:103DC00097E74FF4967194E7BDE8B083EC0B0020C1
:103DD000024B0022C3E90022FFF778BEEC0B002063
:103DE000014B5870704700BFEC0B002038B50446FB
:103DF00020B940F293113520FCF730FD90F848329D
:103E000003F0FF0513B14FF4CA71F4E790F849329B
:103E1000202B02D040F29511EDE70146044806F050
:103E200077FB84F84902202814BF28460D2038BDAE
:103E3000E93C000008B503F017FD054B5A688242C3
:103E40002ABF1878002080F0010000F0010008BDB2
:103E5000EC0B002010B50446042936D8DFE801F049
:103E6000031A161E31001B4B1B7803F0FF026BB9BF
:103E7000012109F0B0F8B4F8A4300133A4F8A4305B
:103E800003F066FEBDE8104006F0A8B9042384F8EC
:103E90004832F5E7032384F8483210BD8369C0F83F
:103EA0005032D0F86C328362B0F868328385D0F833
:103EB00070328361D0F874320362FFF747FE022349
:103EC000E9E7BDE81040FFF741BE40F2063135207A
:103ED000FCF7C4FCEC0B0020014B00221A60704779
:103EE000F40B002008B5044B186810B9FFF7F4FF75
:103EF00008BD0C20FCE700BFF40B0020C3693BB9F0
:103F000083692BB9034B1B681B1A584258417047F1
:103F100001207047F40B002010B5D0E906436BB1C7
:103F2000D0E902211144DA689C610A44DA608269AE
:103F30003AB1D3610023C0E9063310BD034A1460CF
:103F4000F5E7002BF6D0DA60F4E700BFF40B0020B1
:103F500008B5C16191B90F4A1368836103B1D86193
:103F60001060C2690023C3609AB1D3687BB18168D5
:103F70008B420AD22C213720FCF770FC8B698861B8
:103F80008361002BEDD0D861EBE75B1AC36000239F
:103F9000D36008BDF40B0020014B1868704700BFC8
:103FA000F40B0020034B1B68002003B97047184630
:103FB0009B69FAE7F40B00200B4B00221B6830B51D
:103FC00004464FF0FF35104623B911B9002808BF49
:103FD000104630BDDA68A24203D3AA423CBF154660
:103FE00018461A469B69EFE7F40B002038B5036AC0
:103FF0001BB182689C68A24203D2CD213720FCF716
:104000002DFCC1698569D9619D6141B18B61996957
:1040100041B1CB61C1680A44121BDA6038BD024964
:104020000B60F4E7D960F9E7F40B0020F8B5264BF4
:104030000446084600211D680B466DB95BB19842E5
:1040400025D3B0FBF3F1013C03FB01F51C44B4FBA9
:10405000F3F48C420ED9F8BD2E690BB19E4207D203
:1040600026B94FF496713720FCF7F8FBA98A33463E
:10407000AD69E2E7B5FBF3F603FB165626B9B5FBCF
:10408000F2F602FB1656DEB10139ED1AE1E7451EE4
:104090001D44B3FBF4F4B5FBF0F5AC42DBD3B3FB4A
:1040A000F5F605FB16374FB9B6FBF2F702FB1767BB
:1040B00027B9B6FBF1F701FB17671FB10135ECE734
:1040C0002846C8E73046C6E7F40B002010B5044682
:1040D00009F0AAF808B9002010BDE04309F0A4F8DF
:1040E0000028F8D0E31683EAA4635A1E1A42F2D0DD
:1040F00020460AF02FFB1828EDD8A3B2B3EB144FDB
:1041000004D184EA142313F0FF1FE4D0034B63406F
:104110005A1E1A4214BF01200020DDE7D6BE898E48
:10412000F0B5070CA7F5AA42144B543A012A03EA4A
:1041300090231FD927F4004042F6AA22801A18BF04
:1041400001200022162116461F2487EA060562EA8E
:104150000505013510D0DD03ADB245EA5606E5038D
:10416000ADB2013945EA52024FEA53034FEA540413
:10417000EBD1F0BD0020E4E70020FAE7E0FF3F00CC
:10418000304BF0B51A88B0F86070B0F85E605D88AA
:10419000974228BF1746964228BF16461B2E85B069
:1041A0000C462ED0B5F5A47F2DD040F648039D4295
:1041B00001A928BF1D4609F0F8F8BDF80A309F4252
:1041C00028BF1F46BDF80C30E780AB4228BF2B4606
:1041D0002381BDF806309E4228BF1E46BDF8083038
:1041E00066809D4228BF1D46A580FF232370E3887B
:1041F0001B3B9BB2E02B08D94FF4B5613920FCF78B
:104200002DFB1B2FCED105B0F0BD63881B3B9BB2AD
:10421000E02B02D940F2AA51F0E72389A3F5A47359
:104220009BB2B3F5E06F02D940F2AC51E6E7A38848
:10423000A3F5A4739BB2B3F5E06FE4D940F2AE519D
:10424000DCE700BFFC0B002008B509F038FE00F0E9
:1042500003FF00F0D7FC0AF04FF901F09BF801F0E2
:1042600011FE01F0BFF8084908484FF4A4734B80D1
:10427000074B1B220A809A8000221860DA825A8239
:104280000A711A835A7408BDFC0B002003021B003C
:104290001C100020044B41F64C52C3E902221B22A1
:1042A0001A74FFF7D1BF00BF1C100020014B93F917
:1042B0000A007047FC0B0020034B5A8802801B78D1
:1042C00083700020704700BF1C10002013B5837856
:1042D0001A2B044609D8042B05D9012202FA03F34C
:1042E000114A134205D1122017E0292B01D03B2B94
:1042F000F9D12088B0F5706FF5D2694609F02DFE2E
:1043000068B9019B93F8402102F0FF004AB9A278F6
:1043100083F84121FF2283F8402102B010BD022022
:10432000FBE70C20F9E700BF200038040188A1F169
:104330001B039BB2E02B0CD84288A2F5A4739BB25E
:1043400044F24810834204D8034B002019805A805D
:1043500070471220704700BFFC0B0020034B1A88E7
:104360005B88028043800020704700BFFC0B002068
:1043700038B504784278857804F0010352EA0301E5
:1043800004F0020401D1112038BDBCB9002DFAD0CF
:10439000002B08BF144601E000242546204608F003
:1043A0009BFF0028EFD0284608F096FF0028EAD0AF
:1043B000054B00209C74DD749882E5E7002BEBD15F
:1043C00014461D46EAE700BF1C10002013B5008804
:1043D000694609F0C2FD18B10224204602B010BDA2
:1043E000019808F057FF0028F6D0019890F8523154
:1043F0000BB13A24F1E790F8F83003F0FF04002BFA
:10440000F7D190F8EF309B0703D1012380F85231A8
:10441000E3E703490222F0300AF082F8DDE700BF4B
:10442000F3EB0000F0B50378032B87B0044602D904
:10443000122007B0F0BD4378032BF9D8457E0DB1AB
:104440001120F6E78378012BF2D100F0D1FBC307EE
:10445000F6D5A27812F0010014D0E178A3682069A3
:10446000012975D84149A0F253768E4272D86FF473
:104470001C77A3F6C41639448E426BD8834234BFEE
:1044800012200020910713D5E678A3682169012E38
:1044900062D8374EB14261D8A3F6C417A6F6C41647
:1044A000B7425BD88B4234BF122300231843C0B2FB
:1044B000520712D5E178A2682369012950D82D4905
:1044C000A3F6C4168E424DD8A2F6C4168E4249D821
:1044D0009A4238BF12252843C0B20028A9D1237EB2
:1044E000013B062BA4D808F0E3FE00283CD1224B68
:1044F000226961699A4228BF1A46994294BF616154
:104500006361A37861788DF8071021788DF80C30FD
:104510008DF804308DF80610DB07217E22618DF8BE
:1045200008100BD5E378012B1ABFB3FA83F35B09AC
:1045300002238DF80530A368CDE9043203A8FFF704
:104540004FF900287FF475AF01A8FEF757FB70E71D
:10455000122097E7302095E71223A7E73023A5E73D
:104560001225B8E73025B6E70C2062E73CF670026A
:104570008FFD7002CBF370020024F40000B589B007
:1045800043798DF8043083798DF8053001238DF857
:10459000063003788DF80730B0F8013040F2712111
:1045A0004B430393B0F803204A430721ADF81C1096
:1045B00008490592A2F6C4128A4209D8A3F6C41388
:1045C0008B4205D801A8FFF72DFF09B05DF804FB69
:1045D0003020FAE73C369C002DE9F043437A04464C
:1045E000980744BF43F001036372657A690789B095
:1045F00004D11226304609B0BDE8F08315F0F80F5B
:10460000F7D1022DF5D000F0F3FA35EA000340F0BF
:10461000B68194F84860002E40F0B181012DE8D1B8
:10462000A569504BA5F253729A420ED8E3689D4299
:10463000DFD8B4F842300193A38F0093228EE38E2B
:10464000618DA08C08F080FE08B93026D2E7E368BF
:104650009D42CED82378012BCBD813B9A378012B58
:10466000C7D86378032BC4D894F84C30013B062B91
:10467000BFD808F01DFE002840F08381FEF766F9E0
:10468000002840F07881FEF757F90746002840F0EF
:104690007281354BA2699A4294BFA261A361E2691B
:1046A0009A4294BFE261E361226A9A4294BF226215
:1046B000236201460DF10A00FCF742FC0546002882
:1046C00000F05B81294BBDF80A80186803903946D9
:1046D0001B79274F8DF81030284600F0D7FD254B69
:1046E000C5F858322846BB68A5F8008040F8343F2A
:1046F00008F08FFC804600F075FA10F0200F0EBF16
:104700001B22BA8879883B7C14BFA5F85E10A5F8F7
:104710005E20A5F8602085F83C30A5F83E8000F0CA
:1047200061FA8A0706D5002305A88DF8143006958E
:1047300008F01BFD7B7801933B780093BB887A8857
:1047400005F1140105F11000FCF7A2FC2B6923B957
:1047500041F203013920FCF781F86B6963B941F23A
:104760000401F7E73CF670020024F400790202002D
:104770001C100020000C002008F066FDE86101F02C
:10478000D7F820F07F40686294F84D3004EB430383
:10479000988C09F0BEFC94F84D3004EB430380463E
:1047A000588D09F0B6FC40F2E24201464046FFF760
:1047B0003DFC40F2E243A861C5F83002A5F834326E
:1047C00094F84D30F96804EB430328461A8EDB8ECB
:1047D0002A846B8408F01AFC03A905F1B50009F0DE
:1047E000ECFCFF2385F85C326B4BDB6823B10122C4
:1047F00005F5A1712846984797F8128097F813900D
:10480000BF8AB8F1000F40F0C28000F0F1F9804695
:10481000B9F1000F40F0B78000F0EAF98146B8F135
:10482000000F7ED1092601F083F80C23B0FBF3F2D0
:1048300002FB1300C0B2431DDBB2082B9ABF0D3040
:1048400085F8C10085F8C1300121284600F01EFD21
:10485000002E59D12846FFF7C9FA0646002853D141
:104860006078E71CFEF7F6F8A17820783A46FEF764
:10487000C1F800287DD0FEF7F3F8A17820783A46F9
:10488000FEF732F9064600283ED129460320FEF7FE
:1048900067F9A37813F0FD0F0646394614BF0120CF
:1048A0000020FEF73FF97EBB237853B994F80280CD
:1048B000CDE9056608F0FD0805A8FCF7B1FB002866
:1048C0003DD00120FEF756F90646E8B9637A8DF827
:1048D0001400DB0706D5E3680693A3690793012359
:1048E0008DF8143005A8FEF77BFF064694F84C00BF
:1048F000FEF77AF846B9B4F84A102846FEF72EFFBC
:10490000064600283FF476AE288800F0E3F92888B0
:104910000021FCF763FB00283FF46CAE41F27B21E1
:1049200018E700283FF47EAF05A928468DF81480CB
:104930008DF81590ADF8167009F0DDFB73E7059E54
:10494000B542B9D0B8F1000018BF0120B278F31C0D
:10495000394609F0B5FA0028AED0727A687A06F1C5
:104960000A0305F10A0109F0ABFA0028A4D00B26CE
:10497000CAE71226C8E73A263CE60D263AE6112693
:1049800038E60C2636E600283FF44CAFCCE7B9F108
:10499000000FC9D140E700BFFC0B002010B54379E0
:1049A000032B94B055D823F002038DF80230D0F8D1
:1049B0000630CDF803304389ADF8073002798DF821
:1049C000002001238DF80930027B03888DF8012037
:1049D00040F271225343039341884A430692847BF9
:1049E000417B41EA0421ADF82410047CC17B41EAFB
:1049F0000421ADF82A10847C417C41EA0421ADF801
:104A00003010047DC17C41EA0421ADF83610417DAF
:104A1000847D41EA0421ADF83C10C17D007E41EA6D
:104A20000021ADF8421000218DF84810ADF84A1071
:104A30000721ADF84C100949A2F6C4128A420AD8DF
:104A4000A3F6C4138B4206D86846FFF7C5FD14B021
:104A500010BD1220FBE73020F9E700BF3C369C0078
:104A60000278034672B1427862B142881A2A09D9A3
:104A700082881A2A06D9044A006810609B889380AD
:104A800000207047122070471C100020024B026863
:104A90009A600020704700BF1C100020024B026883
:104AA000DA600020704700BF1C1000200378A3F1DB
:104AB0000A02112A9DBF024A002013741220704777
:104AC0001C10002008B5052000F07EF802F012FB53
:104AD000014B024ADA6008BDFC0B00208141000056
:104AE00008B5FFF7F9F9FEF7B9FEFFF771F9FFF71F
:104AF000DDFBBDE8084001460148FEF7DBB800BF1A
:104B00000C0C002008B5FDF741FFFFF7E9FF09F0A5
:104B1000D4F9074800F58471FCF760FD002008F027
:104B200056F902F00DFABDE8084000F09FBD00BF45
:104B30000C0C002010B5094C094904F5037009F06C
:104B400033F804F50470074909F02EF804F50570F0
:104B50000549BDE8104009F027B800BF0C0C002043
:104B6000DC000020E4000020D400002038B5094C0F
:104B70000D4600F073FDD4F80C02C4F8045109F09E
:104B80000BF8FFF787FB00F0EBFE012384F81832E7
:104B900038BD00BF0C0C0020014B93F81802704781
:104BA0000C0C002010B5074CD4F8100208F0F4FFEC
:104BB000D4F8140208F0F0FFFFF746FB002384F856
:104BC000183210BD0C0C0020C2080549012300F06A
:104BD000070003FA00F08B5C18438854704700BF4D
:104BE00018000020014BD3E9000170471800002095
:104BF000034B1868C0F30020400040F001007047EC
:104C00001800002008B503F08DFD084A002332F893
:104C10002310814205D302EB83039B78044A13706F
:104C200008BD01330C2BF2D10023F7E772F4010029
:104C3000250E0020024B187800F00700704700BFD7
:104C4000250E002010B544682388A4F8AD3194F8EF
:104C50006C3084F8AC11012B06D0022B04D04FF439
:104C600022710620FBF7FAFD84F8AF3194F86D301D
:104C7000012B01D0022BF2D184F8B0310449022279
:104C800004F2A31009F04CFC002384F84C3110BD51
:104C90002BDC0000406808490388A0F89F3190F899
:104CA000643080F8A13190F8653080F8A23100F5C9
:104CB000CB7009F02FBC00BF41DC0000044B002288
:104CC00083F822204FF6FF729A84DA841A8570479F
:104CD000260E0020054B9A8C824201BF002283F8E9
:104CE00022204FF6FF729A84704700BF260E0020E4
:104CF000014BD884704700BF260E0020094A0346A6
:104D0000908C4FF6FF71884206D192F8221001294B
:104D100005D01A60012070470020186070470020FD
:104D2000704700BF260E0020064B93F82220012A70
:104D30001FBF0120DA8C83F822009A8408BF00206C
:104D4000704700BF260E0020014B1885704700BF3A
:104D5000260E0020064B0246198D988C884205D1FC
:104D600093F8220018B113600120704700207047AB
:104D7000260E0020094B998C1A8D914201D00020FB
:104D800070474FF6FF729A8493F82220002AF6D0DB
:104D9000002283F822200120704700BF260E002049
:104DA000054B998C1A8D914203BF93F82200B0FAFB
:104DB00080F0400901207047260E002050B90A4AB1
:104DC0001346012003F8010B0868C2F801008A8825
:104DD0009A807047012805D1034B0A689A608A8837
:104DE000D8719A81704700BF500E002048B90A4B15
:104DF000187880B1D3F80120B3F805300A608B80B1
:104E00007047012806D1044BD87920B19A680A600E
:104E10009B89F4E700207047500E002020B9054B15
:104E2000187800F00100704701280ABF014B0020EC
:104E3000D879F6E7500E0020F0B51A4B93F800C071
:104E400006460025E8B2844501D8082029E093F8F9
:104E500053410A7893F854E193F85871624093F8FB
:104E60005241744022444C7884EA0E04224493F860
:104E700055E18C7884EA0E04144493F856E1CA781C
:104E800082EA0E02144493F857E10A7982EA0E028C
:104E900022444C797C40D44205F1010503F107031B
:104EA000D0D1F0BD5E0E002030B5094B01465C78D4
:104EB000002203F58173D0B2844201D8082005E0B6
:104EC00013F8015B8D4202F10102F4D130BD00BF45
:104ED0005E0E0020F0B5254D95F88A4189B0224636
:104EE00005F28B11684606F059FF2146684609F025
:104EF00005F80446B8B300EB4001C9B202A8FBF7BD
:104F000039FE601E95F89361C0B2012495F88A219C
:104F100005E0731CB3FBF2F102FB1133DEB206F1C4
:104F200020030DEB030111F8203C002BF1D100EB25
:104F3000400220326A4406EB46032B4412F8187CE8
:104F400083F8947112F8177C12F8162C83F8957177
:104F500083F8962101F8204C0138AB19C0B2FF2824
:104F600083F88B41D2D109B0F0BD00BF5E0E0020A6
:104F700070B505468CB00C46002A58D02E4890F8E3
:104F80009331C11891F88B2122B94FF480712820F8
:104F9000FBF764FC03EB43020244013392F8946193
:104FA000E67092F8956192F896216271002226715E
:104FB00081F88B2190F88A21B3FBF2F102FB1133C7
:104FC00080F8933190F8B43123B91C4900F5D670BC
:104FD00009F0A3FA667906F03F0646F040066671CE
:104FE0000D22002104A806F051FFE3788DF81F3050
:104FF00023798DF81E302B468DF81D606D4603F128
:105000001006186859682A4603C20833B342154689
:10501000F7D1684606F002FD9DF82F3023709DF809
:105020002E3063709DF82D30A3700CB070BD03213D
:105030006018FBF79FFDCDE75E0E0020D54E000007
:10504000044B5A78824286BF1B1893F84201002015
:10505000704700BF5E0E0020074B00224FF46171C5
:105060001A705A7083F8B52183F8B621A3F8B811E5
:1050700083F8B421704700BF5E0E0020014B83F817
:10508000B60170475E0E002010B51446FFF7D4FE3F
:10509000082803D1012000F0010010BDFFF704FF34
:1050A000064B5A788242F5D904B12070184490F822
:1050B0003A31012BEED090F84A01ECE75E0E002069
:1050C000014BB3F8B80170475E0E002010B50D4BD0
:1050D0005C78844214D9184490F80201C0EBC004F3
:1050E0001C4494F852410C70072140F2531411FBF8
:1050F000004158185B58136083889380012010BDCD
:105100000020FCE75E0E00200246074810B590F82C
:10511000B54124B1417821B1023002F035F8204682
:1051200010BD0C46FBE700BF5E0E0020F8B5184C22
:10513000064648B3617804F5A17008F0DFFE94F8E4
:105140008A510746294604F28B1008F0D7FE2D1A23
:10515000EDB2AF421AD8002506270FE0E21892F808
:10516000422152B907FB034104EB0313324601F518
:10517000857103F18200FFF7FBFE01356278EBB227
:105180009A42EBD80120F8BD0546E5E70020FAE792
:105190005E0E002070B51E4D6B7883428CB00646C3
:1051A0000C4633D92B1893F8421179BB0D2204A871
:1051B00006F06CFEE3788DF81F3023798DF81E30F1
:1051C00005EB061563798DF81D306E4605F18203F7
:1051D000923518685968324603C20833AB42164606
:1051E000F7D1684606F01AFC22789DF82F309A42D3
:1051F0000CD162789DF82E309A4207D1A0789DF8A4
:105200002D30C31A584258410CB070BD0020FBE746
:105210005E0E0020074B5A78824209D91A1892F87C
:1052200042212AB9062202FB003000F58570704742
:10523000002070475E0E002030B50024A0F84E40DC
:10524000B0F8524042F210754C43B4FBF2F4A0F8AF
:105250005240541E05FB0343B3FBF2F3A0F8503059
:10526000094BB3FBF2F30133A0F85630B0F84830E5
:1052700005FB0344036CB4FBF2F459434464B1FBF3
:10528000F2F2026430BD00BF005A620270B50446FB
:105290000D4649BB4FF42A7206F0F8FD012384F84D
:1052A000B530492384F8FF30042384F800316FF0CF
:1052B0003B0384F80131072384F802312B2384F85F
:1052C000FE30FE2384F836317F2384F8A930154B55
:1052D000C4F89830202384F8035184F8045184F8EA
:1052E000055184F8493270BD012912D182690E4BF3
:1052F0001344B3FBF2F3C0F8D43040F6B833A0F84F
:10530000D830438C114604F19000BDE87040FFF79F
:1053100093BF0229E7D1B0F87632D0F870228169C4
:10532000F1E700BF00E0FCFF7FC3C901074B93F921
:1053300000301844142804DC10F17F0F03DB40B266
:105340007047142070476FF07E00704718100020DF
:1053500007B57F230DF107008DF8073002F080FDBF
:105360009DF9073068B10A4A5078404243FA80F00C
:10537000142808DC10F17F0F07DB40B203B05DF8A2
:1053800004FB1846FAE71420F8E76FF07E00F5E713
:1053900018100020024B00221A705A70704700BF8C
:1053A00018100020054B1B7833B9054B1A681B7980
:1053B0000260037101207047002070471A1000201E
:1053C00020000020054B0168FF221A70044A11607A
:1053D0000179117100221A70704700BF1A10002065
:1053E0002000002007B5064B186800901B798DF847
:1053F00004306846FFF7E6FF03B05DF804FB00BF2A
:105400007902020008B5037801F00F0223F00F03C0
:1054100013430629037003D8034B5B5C437008BD3C
:10542000A8212A20FBF71AFAA2F4010003464078CB
:1054300050B1DA782A2A06D8044B1344DB791B1AB8
:105440005842584170470120704700BFA2F4010044
:105450002A2908B5C17004D8064B1944CB7943708A
:1054600008BDFF2904D04FF48D612A20FBF7F6F91F
:105470000123F4E7A2F401002DE9F04385B0894649
:1054800002A91546984608F068FD0446002835D163
:10549000039E2DB9012086F8B40005B0BDE8F08365
:1054A00037692946384607F07DFA01460028F4D0CE
:1054B000144B5B88AB4223D301AA384607F0DFFBCD
:1054C000019B1C809C7096F8B4300198002B0CBF97
:1054D0004946022108F06DFF019841462A460330F3
:1054E00006F05CFC2946384607F091FA18B97C2191
:1054F0002B20FBF7B3F986F8B440CEE70120CCE7C8
:105500002046CAE71C100020024B987DC04300F0E3
:10551000010070471C100020034B987D80F00200B2
:10552000C0F34000704700BF1C10002010B5094CAC
:1055300014220021204606F0A9FC1222002104F1C9
:10554000140006F0A3FC01232373231DC4E90033D8
:1055500010BD00BF381000207FB505460C4621B9AC
:1055600040F20B111020FBF779F903888B800023A0
:105570004B724669304607F074FB014610B94FF490
:105580008A71EFE701AA304607F079FBE08010B995
:1055900040F21911E6E7FB2802D940F21B11E1E7BE
:1055A000019808F00EFF012801D0022805D12072D1
:1055B000206828B94FF49971D4E740F22B11D1E754
:1055C0000199E288033106F0E9FB304607F05FFB02
:1055D00010B940F23711C5E70021304607F07BFAD9
:1055E00010B94FF49E71BDE70A4BDA7D82B11A8B78
:1055F0002888013A02A91A8308F0AFFC10B140F2E2
:105600004511AFE7039AB2F8C4300133A2F8C430B1
:1056100004B070BD1C10002010B520B940F27121FB
:105620001020FBF71BF941600272EFF3108472B691
:10563000094B1A1D0260596819B1097A012908BF7E
:105640001A601A681060186004B962B6BDE81040AC
:1056500093F8260006F0B4BA38100020024B83F805
:105660002600FFF763BF00BF38100020014B024A3D
:105670001A607047EC000020595500002DE9F341F5
:105680005D4FDFF8788106467B681B7A102B0AD1C4
:1056900098F817303BB1B8F8183023B900252846E0
:1056A00002B0BDE8F0813B69B3B11B7AA3B13C699C
:1056B000002CF3D0237ADBB20522023B22720E2BA0
:1056C00000F28C80DFE803F01925448A4D8A628A53
:1056D0008A8A8A8A8A767D007C68237A012BDDD0CB
:1056E000EFF3108372B67A6812687A6003B962B613
:1056F000237A002BD7D03C61DCE7636823B94FF4F1
:10570000E1711020FBF7AAF831462046984704259E
:105710000EE0636813B940F2CB11F2E73146204640
:105720009847ADF80400C5B2C0F30720012858D04F
:10573000EFF3108372B6227A052AD1B201D0002984
:1057400055D1002222723A61002B4CD162B64AE058
:10575000636813B940F2D511D3E720469847002576
:10576000E6E7636813B94FF40471CAE7314620468F
:105770009847FEF7A5F9054618B100233B610425BB
:105780008DE7FDF7D9F80028D2D0F6E763680BB9AA
:10579000E021B6E70D2232701A88A6F80320002413
:1057A000012218697271B471B270214607F093F941
:1057B0003C61E4E719233370D4F80930C6F80330AC
:1057C000A5E7606810B940F23D219AE70C4B3146DD
:1057D0001B68984700233B61022560E740F24621A1
:1057E0008FE703232372002D3FF44EAF57E7002BC2
:1057F0007FF44AAF62B647E7381000201C10002043
:10580000EC0000200448037F23B90449022214302D
:1058100008F074BE704700BF38100020EFE40000AD
:105820001B234FF01B128384038482618382C26036
:10583000038539B94FF4A473034AC3844384C26116
:10584000C3820261704700BF480148010346084611
:10585000B3F85820B3F84C109142F0B528BF114668
:10586000B3F85040B3F85A20B3F84850B3F8427038
:10587000B3F84660A3F84210A24228BF2246B3F80C
:105880004A40A3F84620944238BF14468D4238BFA0
:105890000D468F42A3F84850A3F84A402ED1B61ABD
:1058A00018BF0126B3F84E50B3F85440B3F856E091
:1058B000B3F840C0B3F84470A54228BF2546B3F8FA
:1058C0005240A3F84050744528BF7446AC45A3F835
:1058D000444002D1A74200D196B11B88A0F80930FC
:1058E000A0F80B50A0F80D40A0F80F10A0F8112060
:1058F000BDE8F0400349022208F012BE0126D1E7BC
:10590000F0BD00BF39E500000B8BA2F80B304B8BCC
:10591000A2F80D308B8BA2F80F30CB8BA2F80900C8
:105920000249A2F81130104608F0F4BD79E50000F4
:10593000094AD2E90203434083EAB01181EA4321D4
:105940004FEAF343D360054B916058434FEAF06050
:1059500000EB8000704700BF60100020BB79379ECD
:1059600038B50A4C04F1080508212846FBF702F96E
:10597000D4E902231343F7D0FFF7DAFF2060FFF7E3
:10598000D7FF236860600343F6D038BD6010002065
:1059900038B5436893F8AD201B2A044625D193F807
:1059A000EE101D88002283F8ED2083F8E82083F8AC
:1059B000782203F20F2071B10D4983F8EE2083F8AD
:1059C0001822A3F81952022208F098FD63680020FB
:1059D00083F8AD0038BD012283F8181283F81B222A
:1059E0000449A3F819520222EEE70220F2E700BFB1
:1059F0004BEA000033EA000038B5446800230D4646
:105A000094F8AE20194604F1900008F0D2FAD8B10B
:105A100069680E4BAA680B40C4F8FE30C3F30763F5
:105A200043F0080322F4FF62D20484F80131012319
:105A3000D20C002084F8EC300423C4F80221A4F82E
:105A4000EA0084F8AE3038BD0120FCE72F4904F7A6
:105A500070B54468037894F8AD2006460D4604F10D
:105A60009000072108F0A5FA88B369681A4BAA6864
:105A70000B40C4F8FE30C3F3076343F0080322F47D
:105A8000FF6284F80131D204002384F8AD30D20CD7
:105A9000C4F80221726884F8E83082F8533194F82F
:105AA000B92102F0FF06A2B92388A4F8BB3184F81B
:105AB000BA616B68C4F8BD31AB680849C4F8C1313C
:105AC000022204F2B11008F019FD304670BD012623
:105AD000FBE71E46F9E700BF2F4904F7EDEA000097
