:100000004067002081310100E34002006D310100B2
:100010006D3101006D3101006D3101000000000003
:10002000000000000000000000000000413301005B
:100030006D31010000000000DD3201006D31010072
:10004000213501008F6D02002135010021350100AD
:100050002135010021350100213501002135010044
:10006000456D02002135010021350100796D020046
:100070002135010021350100213501002135010024
:100080002135010021350100213501002135010014
:100090002135010021350100213501002135010004
:1000A00021350100213501002135010021350100F4
:1000B00021350100213501002135010021350100E4
:1000C00021350100213501002135010021350100D4
:1000D00021350100213501002135010021350100C4
:1000E00021350100213501002135010021350100B4
:1000F00021350100213501002135010021350100A4
:1001000053B94AB9002908BF00281CBF4FF0FF317E
:100110004FF0FF3000F00CB8ADF1080C6DE904CEE3
:100120000BF0AAFEDDF804E0DDE9022304B070471D
:10013000704700BF2DE9F00791E8F807B2E8021018
:100140005B1854EB0C04B2E802104D4156EB0C0660
:10015000B2E802104F4158EB0C08B2E8021059EB1C
:1001600001095AEB0C0A80E8F80780410130BDE82C
:10017000F00770472DE9F00791E8F807B2E80210A0
:100180005B1A74EB0C04B2E802108D4176EB0C069E
:10019000B2E802108F4178EB0C08B2E8021079EB5C
:1001A00001097AEB0C0A80E8F80780414042BDE87B
:1001B000F00770472DE9F007524290E87800B1E867
:1001C00080071740DB1918EA020854EB080419EA03
:1001D000020955EB09051AEA020A56EB0A0678C02D
:1001E00090E87800B1E8800717407B4118EA0208E0
:1001F00054EB080419EA020955EB09051AEA020A48
:1002000056EB0A0678C080410130BDE8F007704720
:100210002DE9F007524290E87800B1E880071740D6
:10022000DB1B18EA020874EB080419EA020975EBF3
:1002300009051AEA020A76EB0A0678C090E8780007
:10024000B1E880071740BB4118EA020874EB0804C4
:1002500019EA020975EB09051AEA020A76EB0A06A1
:1002600078C080414042BDE8F00770472DE9F001B9
:1002700052424FF0040890E8300091E8C000A31B00
:100280001340E41AF618EB1B1340ED1AFF1830C0A8
:10029000C0C1B8F10108EED1BDE8F001704700BF60
:1002A00000B592E8DC072DE9DC07B1E8805702B41D
:1002B000A7FB02510A95A8FB020BE7FB6310E9FBC1
:1002C00062B00B91A8FB0351EAFB6201E7FB64B546
:1002D000E7FB6605E8FB6615CDF830B0A9FB03B671
:1002E000EAFB6316ECFB6356E8FB640BE9FB641B5B
:1002F000EAFB645BECFB646B0D90ACFB0230059C8D
:10030000EEFB6250E9FB6460EAFB64B0E7FB64313A
:10031000E8FB6451069CE8FB6461E9FB64B1EAFB1D
:1003200064010E93A7FB0432079CE7FB6462E8FBC1
:1003300064B2E9FB6402EAFB6412049CE9FB6453C7
:10034000EAFB6463089CE7FB64B3E8FB6403E9FB36
:100350006413EAFB64230F955DF8049B99E800069B
:10036000DDF80080A9FB0854EAFB68B4DDF81080D2
:10037000ECFB6804EEFB6814E9FB6824EAFB6834D4
:10038000DDF80480EEFB6865E9FB68B5EAFB68050B
:10039000DDF81480ECFB6815EEFB6825E9FB683599
:1003A000EAFB68450F96DDF80880AEFB0876E9FBAE
:1003B0006806EAFB6816DDF81880ECFB6826EEFBA1
:1003C0006836E9FB6846EAFB6856DDF80C80ECFB12
:1003D00068B7EEFB6807E9FB6817EAFB6827DDF8FA
:1003E0001C80ECFB6837EEFB6847E9FB6857EAFBCB
:1003F000686708B000BD00BF2DE9F14F87B0FFF777
:100400004FFFDDF81C8008F1200888E8FF00FFBCE2
:1004100087E87F08BDE8F08F00B591E89857A3FB07
:1004200003520195A3FB0401E3FB6420E3FB671087
:100430000292A3FB0752E3FB6802E4FB6415E3FBB3
:100440006805E3FB69250391A4FB07B6E3FB692676
:10045000E3FB6A56E4FB670BE4FB682BE3FB6A5B98
:10046000E3FB6C6B0490A4FB0810E4FB6950E3FB16
:100470006C60E3FB6EB0E7FB6721E4FB6951E4FBD2
:100480006A61E3FB6EB1E4FB6E010592A7FB0832E3
:10049000E4FB6A62E4FB6CB2E4FB6E02E7FB6E1203
:1004A000E7FB6853E7FB6963E4FB6CB3E7FB6C03B2
:1004B000E7FB6E13E8FB6E230695A7FB0954E7FBE9
:1004C0006AB4E7FB6C04E8FB6C14E8FB6E24E9FB00
:1004D0006E34E8FB6865E7FB6AB5E8FB6A05E8FB94
:1004E0006C15E9FB6C25E9FB6E35EAFB6E4507965A
:1004F000A8FB0976E8FB6A06E9FB6A16E9FB6C26AD
:10050000EAFB6C36EAFB6E46ECFB6E56E8FB69B71D
:10051000E9FB6907E9FB6A17EAFB6A27EAFB6C3724
:10052000ECFB6C47ECFB6E57EEFB6E6700BD00BF4B
:100530002DE9F14F87B0FFF76FFFDDF81C8008F160
:10054000200888E8FF00FFBC87E87F08BDE8F08F3F
:1005500030B44FF0000310F8014B11F8015B013A81
:1005600084EA050443EA0403F5D1A3F101034FEA49
:10057000D37030BC704700BF4FF0000310F8012B60
:10058000013943EA0203F9D1A3F101034FEAD37021
:10059000704700BF30B411F8014B12F8015B6C409A
:1005A00000F8014B013BF6D130BC70472DE9F00754
:1005B00091E8F807B2E802105B1854EB0C04B2E8BB
:1005C00002104D4156EB0C06B2E802104F4158EBB9
:1005D0000C08B2E8021059EB01095AEB0C0A8941E8
:1005E000B3F1FF3374F1FF3475F1FF3576F1000696
:1005F00077F1000778F1000879F101097AF1FF3A03
:1006000051F100015B184C414D4156F1000657F184
:10061000000758F1000859EBD1795AEB010A80E83C
:10062000F807BDE8F00770472DE9F00791E8F807F3
:10063000B2E802105B1A74EB0C04B2E802108D41B0
:1006400076EB0C06B2E802108F4178EB0C08B2E8AA
:10065000021079EB01097AEB0C0A89415B184C41D5
:100660004D4156F1000657F1000758F1000859EBCB
:10067000D1795AEB010A80E8F807BDE8F007704726
:1006800018EB040859EB05095AEB060A5BEB070B5C
:100690005FF0000C4CF1000C18EB050859EB060953
:1006A0005AEB070A5BEB070B50EB0C005FF0000CFA
:1006B00051EB0C0152EB0C0263414CF1000CB8EB16
:1006C000070879F100097AF1000A7BEB040BA841D5
:1006D000B141A241B3416CF1000CBBEB050BB04141
:1006E000B941AA41BB416CF1000C4CF001068CF001
:1006F000020718EB060859EB6C095AEB6C0A7BEB06
:100700006C0B70EB6C0471EB6C0572EB670653EBD2
:100710006C076CEB6C0C18EB0C0059EB0C015AEBF2
:100720000C025BF1000354F1000455F1000556EB97
:10073000DC7657EB0C0770472DE9F14F87B0FFF7D8
:10074000AFFDDDF81080DDF81490DDF818A0FFF79C
:1007500097FFBDE8000FFFF793FF03B05DF8048B30
:1007600088E8FF00BDE8F08F2DE9F14F87B0FFF773
:1007700053FEDDF81080DDF81490DDF818A0FFF7C7
:100780007FFFBDE8000FFFF77BFF03B05DF8048B30
:1007900088E8FF00BDE8F08F2DE9F3472B4FC41D1B
:1007A0000D1E7B788DF8043024F00704BB788DF89B
:1007B0000530064601A90CBF2046002000F0ECFBE6
:1007C00097F800807B784FF0000A984404445FFA61
:1007D00088F8D1465FFA8AF343452DD3E01C20F018
:1007E0000304002D49460CBF2046002000F0E4FC25
:1007F000B978204471B1FB78FA7B033020F0030410
:10080000002D1A44D2B27B890CBF2046002000F094
:1008100047FD2044397B59B1BB784BB1073020F0FC
:100820000704002D0CBF2046002004F0C7FF204421
:10083000801B02B0BDE8F0873B7AFA79B979787904
:100840000CF0FDF90AF1010A8144C3E7700A0020A7
:100850008FB572B6194B9D6AE5B9BFF34F8F184932
:10086000184BCA6802F4E0621343CB60BFF34F8FAA
:1008700000BFFDE7B4FBF6F4DAB20133002CF9D186
:1008800002F110036B440A2603F80C4C32B901A89C
:10089000A847E2E7044600230A26EDE7531E04AC0E
:1008A00054FA83F4DAB2C3B2B3FBF6F706FB17339C
:1008B000303304F80C3CB0FBF6F0E7E7700A002098
:1008C00000ED00E00400FA051FB5104B1A7A8DF810
:1008D0000920DA798DF8082002A89A795B79ADF8B9
:1008E0000C20ADF80A3003F0C9FA18B1B521032085
:1008F000FFF7AEFF012301A88DF804300DF0A2FD33
:1009000008B1B921F3E705B05DF804FB700A0020D7
:1009100038B5054680B30AF083FF10B94FF0FF30B9
:1009200038BD07F09FFDB0F5FA7FF7D8154C164893
:10093000A562002500F0ECF926222946204684F81D
:100940002C5084F82D500BF025FA01236370A3700E
:100950001B23637140F21B33E380022323721F23A6
:10096000638108232373EFF3108472B600F070FDE7
:100970002CB962B62046D3E76FF01500D0E72846C1
:10098000CEE700BF700A0020C908000010B500289B
:1009900037D1204C94F82C3083BB59B1002A33D086
:1009A000023905292DD8DFE801F003101E2C21247F
:1009B0001378637001210020FFF7EEFEB0F5803F51
:1009C00025DA012384F82D3010BD9378E3B1D37874
:1009D000D3B113781A2B17D953781A2B14D913685B
:1009E000C4F80530E6E71378A370E3E71388638162
:1009F000E0E71388FF2B07D82373DBE74FF0FF30C6
:100A0000E2E76FF02C00DFE76FF01500DCE76FF036
:100A10000B00D9E7700A002070B50D460646F0B10C
:100A2000E9B111F007041AD100F0B0F8D0B13046A6
:100A30000AF0A2FF0D4E214686F82E002846FFF749
:100A4000ABFE0EF009FF96F82E00214603F0AAFA3D
:100A5000FFF73AFF012386F82C30204670BD6FF077
:100A60001500FBE74FF0FF30F8E700BF700A0020E9
:100A700010B5084C94F82C302BB103F0ABFA94F875
:100A80002E000AF095FF0CF0C9F9002084F82C0024
:100A900010BD00BF700A002050B1074B03F11402D3
:100AA00053F8041B40F8041B9342F9D1002070470F
:100AB0006FF01500704700BF63BD0200074B93F84D
:100AC0002D2010B532B993F82C401CB903F034FA3C
:100AD000204610BD4FF0FF30FBE700BF700A00203A
:100AE000074B93F82D2010B532B993F82C401CB960
:100AF00003F036FA204610BD4FF0FF30FBE700BF91
:100B0000700A0020074B93F82D2010B532B993F8E6
:100B10002C401CB903F0DCF9204610BD4FF0FF302B
:100B2000FBE700BF700A0020074B93F82D2010B59B
:100B300032B993F82C401CB90DF09AFC204610BD38
:100B40004FF0FF30FBE700BF700A0020074B93F81F
:100B50002D2010B532B993F82C401CB90DF08BFC48
:100B6000204610BD4FF0FF30FBE700BF700A0020A9
:100B700007C8024B83E8070000207047A00A002046
:100B8000014B9B68184700BFA00A0020024B9868E1
:100B9000003818BF01207047A00A00202DE9F3415A
:100BA000284E031D04463360304604F095F90228B0
:100BB000054607D1234920460BF0FAFA284602B031
:100BC000BDE8F081042836D13378072B18D13E20B8
:100BD00000F04EF878B9F378327901A943EA02239C
:100BE0006846ADF800300BF0C4FD0028DCD053217E
:100BF0000820FFF72DFE052000F07AF80028EAD043
:100C0000314620460BF039FBB0F5817F01D37221CC
:100C1000EEE70028C8D0277894F80280384600F024
:100C200027F80028C0D03E2FC8D1404600F060F819
:100C30000028C3D1B8E70828C0D1024920460BF0EC
:100C4000E6FABBE7AC0A0020074B4FF0FF3141F654
:100C5000FF72C3E9001205490022C1E900221F21E9
:100C6000C3E90212704700BF00000020F00A002014
:100C70003F280CD801380B4BC0F3421200F01F0084
:100C800053F8223023FA00F000F001007047FF28EB
:100C900006D04038C0F34212034B00F01F00EFE7CC
:100CA0000120704700000020F00A00200146074B99
:100CB000006849681A4603C240F48C221A6041F069
:100CC000107242F4FF625A60704700BF00000020BB
:100CD0000246024B0068516803C37047F00A0020C7
:100CE0000246024B0068516803C3704708000020A9
:100CF0000138064BC0F3421203EB820300F01F00E1
:100D00009B6823FA00F000F001007047000000200B
:100D1000014B1860704700BFF80A002010B5FFF7BC
:100D200093FF0CF07EFF034B1B68044603B198470A
:100D3000204610BDF80A00200B880288F0B5C3F3E6
:100D40000E049EB204F11803C57CC35A05352A442B
:100D50002B4497B213FA82F3013B4288B3FBF7F3BB
:100D600013FB07439BB29A42044A93BF22EA06034D
:100D7000324013439BB20B80F0BD00BF0080FFFFE9
:100D800010B5114B00EB41041A786389B3FBF2F301
:100D900003FB0223013A1A44B2F5706F027928BFAF
:100DA00000231A448378B2FBF3F0194403FB1020AC
:100DB000091AB1FBF3F003FB101313446FEA43432A
:100DC0006FEA5343638110BDFC0A002010B5104B3D
:100DD000C0B15A78022A04D040F259111720FFF707
:100DE00037FD03225A70026812F0070102D04FF457
:100DF000AF71F3E75C685A6022440260C3E90311F3
:100E00009A6010BD0122C3E901005A70F9E700BFE2
:100E1000FC0A00202DE9F041254E96F801E00EF085
:100E2000FD0CBCF1010F04D040F273111720FFF745
:100E30000FFD91F80680B8F1080F02D940F2751144
:100E4000F4E7CF7997B34546022D726838BF022583
:100E50007B1D5C0002EB43036A1E13446D422B4072
:100E60008D884544013DC8F100022A404FF6FE75C9
:100E7000AA4202D94FF4C071D8E7BEF1030F12D1D4
:100E800006EB80001C1BC56815B140F28511CDE74B
:100E9000C460A770228084F803C0087A09682071B2
:100EA000080CE080218107FB02337360BDE8F0810C
:100EB000FC0A00202DE9F041364C6378012B65D007
:100EC000032B04D040F295111720FFF7C1FCD4E9A1
:100ED00001329A4202D04FF4CC71F5E7A4460023C8
:100EE0005CF80C6F23701D4601229E465CF82210B0
:100EF000571E49B108798A78FF2829D181F804E082
:100F000095423CBFD5B201230022002FEED003B1A1
:100F10002570256925B3002640F6FF67AB78F1B24E
:100F20008B421DD905EB410328465F81FFF728FF5F
:100F30000136F3E776B196F8048080450CD1B0789D
:100F40000244FF2A0AD903B125704FF49A71BBE716
:100F5000002FEFD00020F3E73846F1E70871CFE724
:100F6000E56875B1002640F6FF67AB78F1B28B42B9
:100F700007D905EB410328465F81FFF701FF0136E2
:100F8000F3E7042363700020BDE8F081022360686A
:100F90006370F9E7FC0A0020F0B585B01B4E0090A5
:100FA00004460D4630B17378022B02D00020FFF7C3
:100FB000F3FF6846FFF70AFF154A2B7801920827CE
:100FC0004FF43872002001A9ADF808208DF80B30DD
:100FD0008DF80C008DF80A70FFF71CFF6B780D4A36
:100FE00001928DF80B304FF48872FF2301A9012084
:100FF000ADF808208DF80C308DF80A70FFF70AFF65
:10100000FFF758FF7068001B05B0F0BDFC0A002018
:10101000FBF700004DCF0000F8B54FF6FF730380DB
:10102000184B03EB81030546D868B8B1867803797D
:10103000B3FBF6F206FB1233DBB219460A1D00EBD6
:101040004202B2F902705488002F09DB0131B1FB72
:10105000F6F206FB1211C9B28B42EFD10020F8BDA7
:10106000FF29FBD0C4F30E03C4782B8024B940F2CF
:10107000C7211720FFF7ECFB5380BDE8F8400BF0C9
:10108000BDBD00BFFC0A00201E4B03EB810370B501
:10109000DC6805464CB3B0F5706F04D340F2D5213F
:1010A0001720FFF7D5FB014620460BF089FDFF28EE
:1010B000014604D02046BDE870400BF09FBDA078EB
:1010C000B5FBF0F300FB1353DBB219460A1D04EB2A
:1010D0004206B6F90260002E09DB0131B1FBF0F2E5
:1010E00000FB1211C9B28B42F0D1002070BDFF2964
:1010F000FBD08B4204EB42021CBF0023E3705580FF
:10110000D8E700BFFC0A0020094B03EB810310B5B0
:10111000DC68014620460BF053FDFF28014604D051
:101120002046BDE810400BF069BD002010BD00BF97
:10113000FC0A00200F4B03EB810370B5DC6801460D
:10114000064620460BF03CFDFF28054610D0014620
:1011500020460BF053FDE2882389014643EA02430F
:101160003046984720462946FFF70AFE002070BD0A
:101170000320FCE7FC0A002038B50E4B827903EB14
:1011800082030446D86808B9022038BD8278E17924
:101190009142F9D24B1CE37100EB41035D89B3F935
:1011A0000A30002BF3DBA5800BF028FD2060002027
:1011B000EBE700BFFC0A002070B5044610F0030006
:1011C0000E4603D049211820FFF742FB0BF09CFC90
:1011D000054624B10348314604600BF095FC2846CF
:1011E00070BD00BF100B00202DE9F04F1E4C85B0E4
:1011F00092462268BDF83CB098468146BDF838302A
:101200000D461AB95B211820FFF722FB1A460A2166
:10121000504603930BF023FB5A46064609214046ED
:101220000BF01DFB3118074620680BF098FC039B60
:10123000C9F8000018B9286005B0BDE8F08F84191E
:101240002C60D9F800000093524631460A230BF077
:10125000B8FA2868CDF838B009234246394605B0B7
:10126000BDE8F04F0BF0ADBA100B002070B50E4684
:1012700004460BF0FDFA054630460BF0F9FA044B34
:101280002A1821461868BDE870400BF092BC00BFD8
:10129000100B0020014B18680BF054BC100B002001
:1012A000F8B511441D4EC9B210F00305317003D0DA
:1012B0004E210920FFF7CCFA1F2B19D89B009BB2B7
:1012C000033323F003039BB208B17060338101EB59
:1012D00081047668E2004FF0010C00EBC404EFB229
:1012E000B94212D8D01D03FB010020F00700F8BD61
:1012F000FF2B4FEA430204D9FF339342DFDB93B263
:10130000DEE77C2AFBDC7C23DAE710B186F800C03C
:101310007460013528361C44E1E700BF140B00203F
:1013200038B5144A147853680021C8B2844203D8EF
:10133000A9210920FFF78CFA1846013105782833D6
:10134000002DF2D00124128944700021446881707C
:101350008161C161920800F12001051D21F8022B75
:10136000994245F8044B1444F8D1002343610370BB
:1013700038BD00BF140B00202DE9F8434B788046A0
:101380000C4602F0040602F0FB07D3B1DFB12F4B8D
:10139000D4F804901D89BFBB01236370AD08A76119
:1013A000E76104F120034A46211D04F1280023F8D7
:1013B000025B984241F8042B2A44F8D10023636170
:1013C00001E0002FE3D0002E4FF0FF0318BF0226EC
:1013D000A370A3191B7D032B03D1022F1CBF013661
:1013E000F6B2A31901221A7506F10C0204EB860667
:1013F000002324F812307268A370C8F80020A8F8FF
:1014000004304046BDE8F883002114226170A01822
:101410000AF0C0FCB5F5FF7F0FD26B08ED1AADB234
:1014200009EB0502C4F804902584A2606384C4F823
:101430000C90A5842261E384C5E7B5F5EE6F4FF00B
:10144000FF03EBD940F27265EAE700BF140B0020FE
:10145000134B012200214FF0FF309A60C3F80012B5
:10146000C3F80803C3F80015C3F804259A60C3F84D
:101470000803C3F80015C3F804250A490A4A03F50E
:1014800080334FF40040C3F80825C1F88000BFF353
:101490004F8FBFF36F8FC1F88001C3F808257047E5
:1014A00000F0004000E100E00000F63F0A461A2389
:1014B00002F8033B0448C368C1F803300369536072
:1014C00043699360704700BF200B0020024B5A8C89
:1014D00002435A845B6A1847200B0020014B00210D
:1014E0005B6A1847200B002010B5114C06F0CCF8B1
:1014F00005F02AFD208DFFF7F1FF237E6BB1224618
:101500000C4952F80C3BE36063685360A368936036
:1015100004F1190002220DF0C8FCE36A94F82A10C5
:1015200094F82B009847002384F8303010BD00BF9A
:10153000200B0020AD140000034B93F830300BB1AA
:10154000FFF7D2BF704700BF200B002070B51D4CC5
:10155000A56B236CE36395F8A330064694F844002A
:101560000BB10430C0B295F86D102EB9FF2803D12D
:1015700095F86C308B4201D005F050FF95F8A33000
:10158000D3B1A06C06F002FA012384F86830D5E9E3
:101590004023A16CE06BC4E9182305F093FC16B955
:1015A000304606F031FA95F86C10002006F076FA15
:1015B000022384F8303070BDE06B06F0E7F905F0E7
:1015C000C3FCECE7200B00202DE9F743404C94F8D6
:1015D0003030A66B012B05460F465FFA83F804D026
:1015E00040F25C412720FFF733F996F890303BB189
:1015F000002186F890100420FFF768FF86F892809B
:10160000A16F0B7803F00303032B05D196F89630F6
:1016100013B90220FFF75AFFA26F137803F00303F8
:10162000032B03D05378002B3ED1012386F896304C
:1016300096F8A330B3B1D6E94001A36B94F8449077
:10164000C4E918014FF0010893F86D0084F8688030
:101650000BF0E6FB0022034600921E494A46404634
:1016600005F0EAFBDDB9D7B1E36F28469847B0B182
:1016700094F82A309BB994F88030D906C3F300124D
:101680005CBF236C1D78D4F884305CBFC5F30015B3
:10169000C5F1010553B9B4F888303BB132B903B094
:1016A000BDE8F043FFF720BF0223BFE7638C9A0732
:1016B00009D5A36FDB78022BF1D1002003B0BDE880
:1016C000F043FFF743BF002DE9D1002BF5D0E6E74B
:1016D000200B0020700B002008B5094B93F8302038
:1016E000022A04D040F23D212720FFF7B1F8DA7A30
:1016F00042F00102DA72BDE80840FFF7F5BE00BF14
:10170000200B0020044B93F8302002F0FF000AB9B0
:10171000187670470C207047200B00200A4B0B4AAC
:1017200070B506460D461A60FFF7ECFF18B1DF21D1
:101730002720FFF78DF8064C012104F18A000DF0F7
:10174000A5FA2664A56470BD40000020F81E0000C4
:10175000200B0020024B012283F8AC20704700BF11
:10176000200B00202DE9F043814C85B002AE86E8C5
:10177000030094F830100C9F01F0FF0511B90AB175
:1017800003B127B94FF4A8712720FFF761F896E855
:10179000030004F1340C8CE8030084F8AC5084F8A6
:1017A0002A5084F8AD5084F82B5084F8AE506584EC
:1017B0002585A56BE3676262E76205F06DFE05F0C3
:1017C000C3FB95F9700005F0F3FE686A06F0D0F8E7
:1017D000E86905F0F3FE95F8B30005F015FFA36B7B
:1017E00093F80C320BB105F045FE95F86D10012011
:1017F00005F0DAFF002800F0B7805E4B5E4E1868F7
:1018000006F0BCF82B69C4F8B0306B69C4F8B4308A
:1018100005F58C7705F5847318685968324603C25C
:101820000833BB421646F7D1D5F81821C4F8692011
:101830005A68524B5A60A36B93F89D20A2F1250180
:10184000012993F86C100E4603D993F89E002528C1
:1018500056D193F8B6322BB1012E03D0012B14BF11
:101860000226012605F13407314638460DF0B1FB5A
:1018700031460DF048F8B5F8403095F86D108342C8
:1018800028BF0346384684F8B8300DF08BFB95F836
:101890006D1095F8A360B5F84880082908BF0421A9
:1018A0000DF031F80EB9043080B2404528BF4046F3
:1018B00095F8A3305FFA80F884F844809BB1D5E9AD
:1018C000406795F86D004FF00109C4E9186784F886
:1018D00068900BF0A5FA0022034600922649424682
:1018E000484605F0A9FA0120FFF730FE244BD3F853
:1018F000503523F00803032B2AD14FF4FD7143E741
:10190000203A012A0CD8232893F83E210AD012F05D
:10191000010319D19207A5D5012918BF0226A1E715
:1019200023280DD193F83E2193F86530134013F02E
:1019300001020BD19B0795D5012908BF0E46ECE7A4
:10194000042908BF08268DE71E468BE7164689E75F
:10195000002323606360A360B5F8943063802B8814
:10196000238095F8B330237105B0BDE8F08300BF44
:10197000200B002040000020700B0020890B00206D
:101980000010004008B50C4B93F830201AB9BDE8A0
:101990000840FFF7A9BD93F83020022A04D040F296
:1019A00013212720FEF754FF9B6BD3F82002BDE8DC
:1019B000084005F0FDBF00BF200B0020014B18764A
:1019C000704700BF200B0020014B93F8AE0070471A
:1019D000200B0020024B188DC0F38020704700BF01
:1019E000200B0020014B93F8AD007047200B002026
:1019F0002DE9F3411E4D8207AC6B06460F4622D5FA
:101A0000D5F8843023B940F24D412720FEF720FF5E
:101A1000B5F88820E96B1846033291F801800AF086
:101A200041F90DF1020201A9E863D5F8B4000BF009
:101A300061F801980BF048F8012238604146D5F86A
:101A4000B4000AF0EDFFF3070ED5D4E940320133BC
:101A500042F10002C4E9403294F89830012B0CBFE7
:101A60000023012384F8983002B0BDE8F08100BF64
:101A7000200B00202DE9F04F9C4C002387B0CDE9CE
:101A8000043394F83030A76B022B8146884604D08B
:101A900040F2CF412720FEF7DBFE238D5B0606D404
:101AA0004020FFF71BFD238D43F04003238597F86B
:101AB000A330B9F1000F00F00A81A3B105F072FA6A
:101AC00005F056FA78B9E36B5A7862B11B7897F84B
:101AD0009820C3F3C0039A4205D1012384F82B3028
:101AE000FFF702FD47E1E36B5978A4F8881011B3C2
:101AF000D4F8B4000AF06AFFC4F88400238D97F884
:101B0000972043F480732385E36B1B78C3F3800332
:101B10009A4200F0B180A56B95F89630002B3ED02C
:101B2000022B12D1D4F8B00004A90AF0E6FE28B9BD
:101B300040F2CB31AEE7C4F88410DFE7D5E93E329E
:101B4000013342F10002C5E93E3295F8923000219E
:101B500085F8961023B185F892101020FFF7B6FC97
:101B600095F891309BB1002685F8916002F008FC51
:101B700010B940F2E2318DE731460820FFF7A6FCAC
:101B8000D5E93E32013342F10002C5E93E3295F813
:101B90009730012B0CBF0023012385F89730238D4C
:101BA00043F4806323854FF0000BE16B97F8982096
:101BB0000D78C5F3C0039A427ED105F00305032DCD
:101BC000A66B5BD0002D64D196F89830013B18BF0E
:101BD000012386F89830E36B5B7833B1D6E9403265
:101BE000013342F10002C6E9403297F8A23093B1C6
:101BF000D7E93E23A16B002691F86C0084F8686059
:101C0000C4E918230BF00CF9394900960346FB226E
:101C1000304605F011F9B8F1000F6BD194F8AD30F2
:101C2000012B67D8E36F01209847002862D094F811
:101C30002AA0BAF1000F5DD1A66B94F8443096F853
:101C4000A3208DF80D80002A40F09880FF2B96F895
:101C50006C1003D196F86D308B4202D0FF2005F056
:101C6000DDFB96F89630032B00F22F81DFE813F0AE
:101C700089000E0111012401CB4696E7238D012036
:101C800043F4006386F890002385FFF71FFC0025CE
:101C90009AE74B78002BFAD0228DD4F8845042F486
:101CA00000622285002DA0D0FB2B07D894F8AC3021
:101CB0005BB12020FFF712FC002596E794F82A304C
:101CC00043F0100384F82A30F6E74D467CE70BB169
:101CD00005F09EF994F8AD30013384F8AD30238DD2
:101CE000002543F400732385AB467EE7200B0020DC
:101CF000700B002005F0F2FE4FF001081DB105A9A0
:101D00000220FFF775FEBBF1000F0DD0B4F80720DD
:101D1000B4F805301343B7F8942013431EBFB4F84A
:101D200009300133A4F80930B9F1000F00F0D58073
:101D3000B4F805300133A4F80530002384F8AD3041
:101D4000694803F075FC049840B10AF0BDFEA16B30
:101D500000234372082201300DF095F8059B33B142
:101D6000A16B00221A72059810220DF08CF8B8F1C0
:101D7000000F7FF4B5AE07B0BDE8F08F0433DBB2DF
:101D800064E794F8B830ADF80E305848A6F85C30E7
:101D900002F0E6FA00285DD0A16F8020FFF796FBE5
:101DA000012386F8913096F89730A26FDB0003F09C
:101DB0000801137803F0F3030B4396F89810890099
:101DC00001F004010B4323F0100103F00303032B84
:101DD000117002D1D378022B0FD0D4F8B0000AF0E2
:101DE000D4FD40B9A36F1B7803F00303032B04D089
:101DF00002F0DCFA08B94FF0100AA06F03784AEA43
:101E0000030A80F800A096F8A230002B60D0437837
:101E1000002B5DD0A06C05F0B9FD002384F868307C
:101E2000D6E93E23A16FA06CC4E9182305F04AF857
:101E300096F86D10012005F031FEA26F1188A4F80C
:101E4000801091782A4A012384F8AE30917084F88A
:101E5000303053E7D4F8B0000DF10D020DF10E0152
:101E60000AF028FDA06788B196F8DB3073B99DF8B9
:101E70000D302BB903808370A06F01210CF006FF99
:101E8000BDF80E10A06F0CF0CDFF8CE7194BA367C7
:101E900089E7B6F85C30D4F8B000ADF80E300DF13B
:101EA0000D020DF10E010AF005FDA06700287FF478
:101EB0007AAF40F2D621EDE50C4802F051FA002845
:101EC0007FF471AF40F2DF21E4E54FF43B71E1E5CF
:101ED00005F05CFD05F038F8AAE7B4F807300133E7
:101EE000A4F807302CE700BF540B0020980B00200B
:101EF000A00B0020AA0B0020D9160000751A0000C4
:101F0000C91500003915000038B5074D044600F129
:101F1000510128680CF02FFE94F850102868BDE895
:101F200038400CF036BE00BFDC0B0020F8B504468C
:101F30000E466588407F15F00401134618BF04F172
:101F40005F01324602F0F0FCC20705460BD50123C3
:101F500084F85030607F02F04BFD0368C4F85130C4
:101F60008388A4F85530AB070CD5094E012730689B
:101F700084F85E7004F15F010CF004FE30683946AD
:101F80000CF010FE85F00400C0F38000F8BD00BF27
:101F9000DC0B002038B5C38D0E4D0133C385AB7CFF
:101FA00004462BB105F060FD04F0EEFE0023AB7497
:101FB00000232B7194F869302BB101212046BDE834
:101FC00038400BF08BBB637C13B1E28D9A42F4D2A4
:101FD0000021F3E7DC0B002070B5294C2379022B9C
:101FE00007D02379032B04D040F6EC412D20FEF7D7
:101FF0002FFCA0B90125A37C1BB105F035FD04F031
:10200000C3FE002D3AD0E0690BF0E0FA002830D092
:1020100005F03AFB236ABDE870409B6818472168C9
:10202000E26911F8095B02F15103E80992F85020C6
:102030000CF079FB0028DDD0206800210CF0D8FDE1
:102040000028D7D02379E069022B05D02379032B10
:1020500002D040F6C541C9E72379226A03F18043E3
:102060005269023B05F00F0152F8233098470546AC
:10207000C1E7E069BDE87040FFF78CBF70BD00BFED
:10208000DC0B00202DE9F04104460E4619B300F1A7
:10209000280528460BF0D6F8A0B963881A072DD575
:1020A00028460BF0E6F8074628460BF0CBF8381A1E
:1020B000C0B20BF0EEF8594A936803442846936087
:1020C0000BF09CF828460BF09EF805F09DFA21795C
:1020D000252005F0A3F9514D94F85E70286800237F
:1020E00003806388103B0D2B61D8DFE803F05E604E
:1020F0005A0C603F606060606060603F2046BDE8F1
:10210000F041FFF747BF002102F0A0FD2A681378D5
:1021100023F0200343F0200313702046FFF7F4FE62
:10212000638823F008039BB2152B05D094F8382060
:10213000616B28680CF03DFD286805F027FC04233E
:102140002B7136B16388102B36D12179002005F030
:1021500061FA6388103B0D2B5AD8DFE803F05C5915
:10216000535359535959595959595953012102F047
:102170006DFD2868037823F0200343F020030370EB
:1021800047B104F15F010CF0FDFC012128680CF05F
:1021900009FDC2E704F158010CF0F4FC94F8571063
:1021A000F4E7062102F052FDB7E70221FAE740F218
:1021B00049612D20FEF74CFB04F128084046EF68EA
:1021C0000BF057F8064640460BF03CF8013E301A3B
:1021D00061882822C0B200F09FFC63881B07074477
:1021E00006D5AB681F440BF051F83844C4F8D00052
:1021F00022793946002005F03FFB0028A9D140F69E
:102200006151D6E721790120BDE8F04105F046BCD7
:1022100040F67551CDE7BDE8F08100BFDC0B002032
:1022200038B54388102B044604D1BDE8384001215D
:10223000FFF728BF0B4DAB7C23B104F08BFD402092
:1022400005F006FC286805F0A1FB608810F004008A
:1022500002D1217905F022FC002005F0D5FB0223F4
:102260002B7138BDDC0B0020024B0121D869FFF730
:1022700009BF00BFDC0B002010B5134CA37C1BB1C1
:1022800005F0F2FB04F080FDE0690BF09FF970B1FE
:102290002379E069022B0FD12379226A03F180436D
:1022A000D268023BBDE8104052F823301847E0697D
:1022B000BDE81040FFF76EBE2379032BECD040F64B
:1022C000F4312D20FEF7C4FADC0B002018B1084BC6
:1022D000D869FFF75FBE51B1054A1379116AD06919
:1022E000096903F18043043B51F8233018477047D4
:1022F000DC0B00202DE9F043032985B0054690460C
:102300007ED090F8683003F0FF02002B7DD10529C4
:1023100004D16B88DE0760D5002A5ED10127DFF883
:10232000F09099F81260B6B10CF041FA082888F8DC
:10233000000014D002AA0DF1070102F0C5FA20B97D
:1023400040F63D712D20FEF783FA9DF8070002A9A3
:102350000DF03EF9064698F80030082B08D1D9F860
:10236000001011F8030BC0F380100DF031F9064690
:10237000D9F8001095F8572011F8030B05F1580310
:10238000C0F380100CF0CFF9D9F80010044611F812
:10239000030BC0F380100CF000FA814602F03AFB08
:1023A000014640B1B9F1080F1BD0484602F0B2F91E
:1023B00080F00101C9B298F80000082815D094B93E
:1023C0006B7F1C1A604260416B885A0706D421B9A2
:1023D00096B9EB7C93B1BB4210D0002005B0BDE8AC
:1023E000F0830021E7E70120EEE714B181F001045A
:1023F000E4B204F00100E7E73046EFE70120EDE743
:1024000043889B07E9D5022789E70529E5D180E7BD
:10241000DC0B0020032973B5054604D0052955D0EF
:10242000012002B070BD08230DF107028DF80730BE
:10243000FFF760FF0028F3D02B7C294E0BB39DF8EB
:10244000070095F8B630E3B92B7885F8B73008283F
:1024500005F1B9022BD005F1B80102F035FA20B927
:1024600040F6BA712D20FEF7F3F995F8B83043F035
:10247000020385F8B8301B49022205F1AE000CF0CA
:1024800002FD306800240421048002F0DFFB2846AE
:10249000FFF73AFD95F84020E96B30680CF098FBA7
:1024A00030680523337105F071FA2046B9E73068CA
:1024B000034613F8031BC1F3801185F8B810D0F858
:1024C0000310C5F8B9109B889380D4E7064B1B68AE
:1024D00023B1984780F00100C0B2A2E71846A0E7F8
:1024E000DC0B002057CE0000440000202DE9FF4700
:1024F00008230DF10702052104468DF80730FFF788
:10250000F9FE074620B90027384604B0BDE8F08739
:102510007B4E3168F27C11F8030B06F11403C0F313
:1025200080100CF000F980460028ECD1256A326852
:1025300095F8A530117803EA511303F0010385F8EB
:10254000A530D2F80F30EB61537D117D1B0443EAB7
:102550000123D17C0B436B62B2F819000CF01DFA19
:102560003368A86181460146987D0CF01AFA3368F9
:10257000A8854946B3F817000CF01CFA3368A86226
:10258000B3F81B202A84B3F81D206A8493F8242012
:1025900002F01F0285F8B120D3F81F00029093F8D3
:1025A00023308DF80C3002A905F1A5000CF039FAA2
:1025B000336893F824305B0985F80D3240F201133B
:1025C000A5F86C304FF0FF0A05F1340085F86EA0D5
:1025D000414602F039FD284694F912100CF0D3F967
:1025E000256A84F873802B88A4F8743084F891A04D
:1025F0004FF6FF73A4F89230A8699DF807900CF08D
:10260000C6F92B8CA4F88C306B8CA4F88A00A4F843
:102610008E3095F80D3284F89030237F04F17E02DD
:1026200083B394F85030012B2CD194F8563003F03A
:10263000C003402B26D1D4F85130C4F87E30B4F812
:102640005530306893800346B9F1080F13F8032B17
:10265000C2F3801284F87720D0F8030004F17802E6
:1026600004F1840144D0C4F884009B888B804846E0
:1026700004F1770102F028F940B940F64A412D20D3
:10268000FEF7E6F80023C4F87E30DAE794F87730F6
:1026900043F0020384F877301A49022204F16A00F9
:1026A0000CF0F1FB236A18491A88A4F8AB2093F8C0
:1026B000A53084F8AD30022204F1A2000CF0E3FB57
:1026C000124B206A1B68002232710BB121469847D9
:1026D0003368226AD3F80310C2F80310B3F8071066
:1026E000A2F807101B78226AC3F3801393700BE7DC
:1026F000A0679B8893800023C4F884308B80CBE74D
:10270000DC0B00206FCE000041CE0000480000200E
:1027100010B50B4B1A798AB11A79DC69022A02D0FA
:102720001A79032A05D19B7C1BB105F09DF904F0B1
:102730002BFB2046BDE81040FFF72CBC10BD00BFAE
:10274000DC0B002010B50948037903F0FF0453B9EE
:1027500018222146043009F01DFB05F085F904F02C
:1027600013FB204610BD0C24FBE700BFDC0B002050
:1027700010B5094C002323712060FFF7E3FF20B15F
:1027800040F21E312D20FEF763F8236A13B940F2A0
:102790002131F7E710BD00BFDC0B0020014B024ADE
:1027A0001A627047DC0B0020C02A0000034B044A69
:1027B0001A60044B044A1A60704700BF44000020AE
:1027C000ED24000048000020793600002DE9F0419A
:1027D000067DB31EDBB2012B04468CBF4FF0000810
:1027E0004FF001087EB3B71E18BF0127012B36D862
:1027F00000F1580190F857000BF0CFFF082805466C
:102800002DD001F093FF58BB657784F81C8084F8C5
:10281000507002F053F805460DF0FDFA174BA5FB7A
:1028200003351B1845EB01050022C4E9123584F875
:102830005E2011462046FFF779FB70B940F2B641A1
:102840002D20FEF705F83746082504F15101002038
:1028500001F0D2FD0028D7D10020BDE8F081082585
:10286000022EF2D0E37E002BF6D0D4F81530C4F857
:102870005130B4F81930A4F85530C5E740420F0084
:102880002DE9F041604D2B7986B0044603F0FF0737
:10289000002B40F0B7800378FF2B00F0B3805B4B38
:1028A00002935B4B03935B4B04932B6A6F715B68E2
:1028B00080F8697002A805932F82AF60AF7105F0B0
:1028C0005DF804F0E9FD05F0CFF804F05DFA524838
:1028D00004F074FE04F12806504805F049F830462B
:1028E0000AF08CFC30460AF08EFC04F08DFE217953
:1028F000252004F093FD94F9120004F059FE21798B
:10290000384604F051FFE86028B901232B7138469E
:1029100006B0BDE8F08104F13401206B0AF0EDF956
:1029200004F13C018046206B0AF00EFA0646B8F12D
:10293000000F03D094F82430002B3DD10EB194F851
:102940002560237F13B963885A070AD5D4E9121288
:102950006FF000439A4208BFB1F1FF3F2ED1002E25
:1029600034D12868033001F0CDFF6388A874DB07F9
:10297000CDD50023266ACDE90033FF23EB7406F1A1
:102980000A086846FEF7F8FB0028C0D1009CA64262
:10299000F7D0727A607A434604F10A010BF0C3FE65
:1029A0000028EED0A378EB74D4F8030068611C4BC8
:1029B000B4F807209A80AAE70126C2E70DF02BFAA7
:1029C000D4E91223904271EB0303C8D3012206EA33
:1029D00002012046FFF7AAFA68B101F06FFF064630
:1029E0000DF019FA0F4BA6FB03361B1846EB010638
:1029F000C4E91236B5E7002EB3D040F614212D20DD
:102A0000FDF726FF0C2782E7DC0B0020792200006F
:102A1000D91F0000CD220000D6BE898E5555550025
:102A2000F00B002040420F0038B50546FFF728FFA5
:102A3000044638B9044B1B79012B03D001462846C4
:102A4000FFF720FB204638BDDC0B0020024BD8618D
:102A50001B6A1B68184700BFDC0B002008B5044B3D
:102A60001B79012B01D1FFF795FA002008BD00BFAB
:102A7000DC0B002043881B0710B5044612D5036AFF
:102A80000A493C2280F873201B88A0F87430FF2389
:102A900080F891304FF6FF73A0F8923002226A302E
:102AA0000CF0F1F9012384F8693010BD6FCE0000FD
:102AB0001524000021220000CFCE0000C9CE000066
:102AC000292A00001127000069220000BC2A00000A
:102AD000B42A0000B02A00000138022808B503D942
:102AE000CA212F20FDF7B4FE13290A4B05D811295E
:102AF0000CD8102907D0D821F3E71529FBD103EB17
:102B00004003D88801E033F8100008BD03EB400310
:102B10009889FAE79883020008B5431EDBB2012BBF
:102B200005D91D291ED0EE212F20FDF791FE103969
:102B30000D291BD8DFE801F0071A11111A0C1A1A17
:102B40001A1A1A1A1A160B4A02EB4303588A08BDBE
:102B5000084A02EB4303D88AF9E7064A02EB43032B
:102B6000588BF4E740F25A335843F0E74FF4817141
:102B7000DAE700BF988302000B2808B504D940F2B9
:102B80004F310620FDF764FE014B33F8100008BDFD
:102B9000B88302002DE9F04F8BB00446154602932E
:102BA000894690F86DB00BF0AEFC064694F80D0225
:102BB000FFF7E2FF94F89E300393064485F001038B
:102BC000B6B2059355BB94F85432032B26D1039B20
:102BD0000D2B23D1B4F8B4324B451FD1D4F85C325D
:102BE000C4F84832A369B4F82622C4F84C32B4F8C9
:102BF0009A321344C4F85032204604F01BF8D4F83B
:102C0000B832A362B4F8B632A385D4F8BC32A3615B
:102C1000D4F8C0322362022384F85432B4F8987294
:102C2000B4F89480A9EB07073FB204F51C73A9EB35
:102C30000808002F04930FFA88F86EDAD4E9A2236B
:102C40004746C4E9A42301230493CC4B1B7803F02B
:102C5000FF05002B54D005F085FC054600284FD019
:102C6000B4F83C32012B6DD994F85432022B69D060
:102C700094F86A52002D65D194F80D02FFF77CFF9D
:102C800094F8543200F5C866012BB6B2D9B24CD1D3
:102C900094F8A130D4F828A0032B40D1D4F84C529A
:102CA00055443146D4F84C0205F0B2FBD4F8483212
:102CB000C4F84802A0EB030AD4F850323146284643
:102CC00003FB0AFA05F0A4FBD4F85852C4F85802E2
:102CD000451B3146A06905F09BFBAA44B4F8265277
:102CE000D4F850324544ED1BDB432B44D4F85C52FE
:102CF000451B05FB03A50123C4F85C0284F86A3276
:102D000094F85432DFF874A2032B00F28281DFE8DA
:102D100013F01B0016016B003701029B94E7284655
:102D20000BF01BFE00EB0A05BBE7A069314605F07E
:102D30006FFBB4F82652D4F85C324544ED1BC31A3D
:102D40005D43D8E70025DBE7012100200BF005FEFD
:102D50008046A06A3146404405F05AFB3146C4F82B
:102D60005802A06905F054FB07A9C4F85C0208A842
:102D700004F0BCFE079B0093D4E9A401DDE908231D
:102D800008F032FC834620460AF0BDFBD4F8A0329E
:102D9000A66A94F86D001E4404F0D4FFD4F85812CB
:102DA000A6F120077F1A00F523404FF47A734744B9
:102DB000A130B0FBF3F0A38DA7EB0B0730313F1A26
:102DC00003EB410194F86D000AF067FAD4F8A032E1
:102DD000FB1A2230B3F5C87FCAF8040055D840F278
:102DE000ED413020FDF734FDA36AD4F84C023146A2
:102DF000184405F00DFB3146C4F85802A06905F0EF
:102E000007FBC4F85C0220460AF07DFBB4F82632CA
:102E1000A66AD4F84C72002B40F08C80029B002BE9
:102E200000F0888094F86DB0584604F08BFF37446A
:102E3000D4F8A422D4F8583204938046203F584650
:102E4000174404F077FF049BFF1A3F1A08F5234844
:102E500008F1A1084FF47A70B8FBF0F8A7EB080767
:102E6000D4F85812D4F84832D4F8502294F86D00AF
:102E7000303102FB0311A38D03EB41010AF00DFA7F
:102E80000123CAF8040084F85432A669D4F85C32ED
:102E9000A6F21B26F61ADAF804309E4228BF1E4618
:102EA0006E23A4F87832D4E9A4327F1BDF1942F1F3
:102EB00000024FF00008C4E9A072C4F8206284F850
:102EC000708204F134000CF06BF8B4F81012A4F81E
:102ED0009892D4E9A023A1EB09090FFA89F9C14519
:102EE000C4E9A423C8BF022384F87A82C8BF84F847
:102EF0007A32039B06440D2BC4F87462029B00F0E7
:102F00008B80002B40F0898094F85432002B00F025
:102F1000A280A169D4F85C3204F51C70C91A0BF0C8
:102F2000C1FC80B2002800F09680149B03B1188089
:102F30000120A0E0D4F8580237443F1A90E7D4F8B3
:102F40005C22A369D4F85002D4F848129B1A5F435C
:102F5000B4F826329844C3439844D4F858323033F6
:102F600001FB0033A18D94F86D0002FB083301EBE7
:102F700043010AF092F9CAF8040086E7000C002029
:102F8000A369D4F85C021B1A5F4394F89D30252B8B
:102F900003D094F89E30252B0AD1B4F8B432A9EBB3
:102FA00003031B0404D494F8B732002B18BF9B46CC
:102FB000049B03B3B4F82632EBB9D4F8A43213B9A6
:102FC00040F23F510DE794F86D0004F0BBFED4F8D9
:102FD000A4320646203B94F86D00049304F0AAFE48
:102FE000049B1F44381A06F52343A1334FF47A7724
:102FF000B3FBF7F7C71BB4F82612D4F85C32414490
:1030000059433031490058460AF047F91B4B586084
:103010003BE740F25451E4E6EBB1B4F83C1221B383
:10302000B4F83E2294F84032A4F83E2202FB033367
:10303000994202F101000EDD94F87A325BB100236F
:1030400084F87A32A4F83E0202F086F800F0070015
:10305000013084F8400294F89C0204F51C7107F0DA
:10306000BDFA20B940F29D51BBE60A46DAE7059B5E
:1030700084F8683200200BB0BDE8F08F000C00200F
:103080002DE9FF41044618B994213020FDF7E0FBFB
:10309000082900F23281DFE811F0090080008A007F
:1030A0008A00850030011C0124012E010023C0F894
:1030B000A43290F86832B0F89420002B65D0B0F8B4
:1030C000663293425BD1B0F81422A0F89420D31A50
:1030D000A0F81632D4E9A0232046C4E9A22303F0C5
:1030E0008DFC94F81B32002B00F0B680A569D4F853
:1030F0005C32DFF80C829D4288BFED1A98F80830E8
:1031000098BF00251BB9636B9D4228BF1D4604F183
:1031100034000BF045FF064694F86D0004F012FEF3
:10312000D4F8203203F24517374400F55F404FF4DE
:103130007A734130B0FBF3F00744022007F086FFBA
:10314000ED1B25EAE575854228BF05460221284684
:1031500007F0CAFF00B92F4440F2792239462046D1
:103160000BF06AFFD4F82032C8F80C00A0691844AC
:1031700007F012FF00286FD140F2A33185E79A1AB9
:10318000A0F81622A4F89430A4E7B0F864329A1A92
:10319000A0F81622B0F86432F4E704B0BDE8F041BC
:1031A0000CF044BB04B0BDE8F04104F0ABBC0CF043
:1031B00032FED4E9A223801A61EB0301012871F1E8
:1031C000000302DA40F21A615FE76FF00103834205
:1031D0004FF000038B4102DA40F21B6155E7A3690F
:1031E0000BB1B0FBF3F394F89E10B4F866220D29EE
:1031F00035D10132A4F86622B4F89A32B4F894506A
:103200000133A4F89A32B4F8CE301D44B4F8CC306F
:10321000013DED1AADB20DF10E06B4F866126B1A4F
:103220001B0436D594F8A1303649002B0CBF3E2341
:10323000082384F8BF3004F1B6000BF030FE2046BE
:103240000CF0F6FA002384F8543294F89C0207F04C
:1032500053F8202384F89C3204B0BDE8F081B4F820
:1032600094100B449BB2D11A090454BF531C013370
:103270009BB2A4F8663294F86932002BBCD1B4F842
:103280001432B4F86622934204BF0133A4F86632C4
:10329000B2E7002300961A462046FFF77BFC002881
:1032A000DAD0012812D1B4F86622B4F81012BDF8B1
:1032B0000E301344521A12049BB204D5EA1A12F4C7
:1032C000004F18BF0B46A4F86632A6E740F25A61D9
:1032D000DBE6012005F066F804B0BDE8F04109F036
:1032E000ADBD90F85432042B01D0B821CDE60023B7
:1032F00080F85432B0E7BE21C7E6C221C5E600BF60
:10330000000C00203DF1000090F8E0302DE9F04184
:1033100004460D46164603F0FF0813B10C20BDE825
:10332000F0810146474806F0BDFF20280746F5D04A
:103330005022414604F1C00008F02CFD012384F81E
:10334000C070C4F8C45084F8E03035B101F01CFFFF
:1033500000F00700013085F84002204609F0B0FF78
:1033600000274FF48173A4F8F230A4F8F00084F839
:10337000E87005F07DF8B4F8F050D23505442046E9
:1033800009F0CAFEADB2014668B30BF0BCF800F517
:10339000CD6189B2304605F03BF83044C4F8EC000A
:1033A0000CF039FD281841F10001C4E93E0101206B
:1033B00084F8C800E78409F06CFFDB3E361AC4F8D5
:1033C000CC604FF0FF326FF00043C4E9402394F823
:1033D000C00004F1E80107F001F930BB40F2E91147
:1033E0003020FDF735FA204609F0BAFD164FDB30E4
:1033F000C4F8EC00388A40B1E08C30B101F0C4FE72
:103400003B8AB0FBF3F202FB130005440CF003FD12
:103410002D1841F10001C4E93E51002ED1D075199B
:1034200041F10001C4E94051D1E7D4E93E23002530
:103430002046C4E93623A4F8E250294609F088FE64
:1034400028466CE759D30000000C0020F0B500239B
:1034500085B0CDE9003301238DF806306846FDF7CD
:103460008BFE70B11B4E0123B3740027CDE90277A8
:1034700002A8FDF781FE0546A8B10020B07405B092
:10348000F0BD00980AF07EF8E8E790F89C0207F09B
:103490005FFF94F89C0284F8545206F02DFF20231D
:1034A00084F89C32E2E7029B002BE1D093F89C2247
:1034B000202ADDD018884FF6FF739842DDD02946C8
:1034C000FDF722FE04460028DFD140F21F11302014
:1034D000FDF7BEF9000C0020054B002201211A72F5
:1034E00019709A7442F210721A82FFF7AFBF00BFD0
:1034F000000C0020014B1872704700BF000C002028
:1035000008B503F085FF044BDA6882422ABF987C35
:10351000002080F0010008BD000C00202DE9F347D9
:103520000446052900F2A280DFE801F0037D6A7AF3
:10353000819BD0F8A432002B50D090F86A32002B37
:103540004CD090F85432032B48D190F86DA00AF07B
:10355000DAFF064694F80D02FFF70EFB804606449C
:103560005046D4F8A47204F0E5FB3F1A504604F02C
:10357000E9FB00F2E7325046D4F820524FF47A7952
:10358000B2FBF9F2BF1A04F0D5FB2D1A504604F035
:10359000D9FB00F52340A130B0FBF9F02B1A5A08F3
:1035A000B6B2603B08F5C868293273431FFA88F841
:1035B000B3FBF8F360335908A2EB53039F4202D3E5
:1035C0000A44974201D905F0B9F9A069314604F0DF
:1035D0001FFF0023C4F85C0284F86A32254B9B7CF1
:1035E00003F0FF0263B9B4F81412009201232046DD
:1035F000FFF7D0FA38B140F2E4613020FDF728F946
:10360000042384F8543204F089F806F0B1FCB4F8CD
:103610009420A4F866220023A4F89A3284F8693230
:1036200002B0BDE8F087032380F85432F8E703F0D6
:10363000E9FE0546C4F8A40294F86D0004F07AFB94
:10364000854202D24FF46A71D7E794F86D00D4F83E
:10365000A45204F06FFB074BDA6815442D1ADD60A5
:10366000DEE702B0BDE8F04709F04DBF4FF4EE6170
:10367000C3E700BF000C00202DE9F84306460C46C6
:1036800015468ABB03F0C4FE0121D4E93E890746F2
:1036900084F8E050D4F8C40084F8C85084F8E110ED
:1036A00001F014FAD4F8C400C0E9A28994F8C0303B
:1036B00080F89C32C0E9A489C0F8A07209F037FFF5
:1036C00020B140F227713020FDF7C2F804F026F84F
:1036D00006F04EFC074994F8C000324604F052FE52
:1036E00028B940F28371EEE740F29A71EBE7BDE84A
:1036F000F88300BF81300000014B1882704700BF83
:10370000000C0020F0B5070CA7F5AA42144B543A60
:10371000012A03EA90231FD927F4004042F6AA2287
:10372000801A18BF01200022162116461F2487EA9E
:10373000060562EA0505013510D0DD03ADB245EAA4
:103740005606E503ADB2013945EA52024FEA53038A
:103750004FEA5404EBD1F0BD0020E4E70020FAE783
:10376000E0FF3F0010B501210020FDF7CDFC04462D
:1037700070B90121FDF788FC044620B940F21D31E3
:103780003920FDF765F8034B93F9001009F0B0FB01
:10379000204610BD180C0020304BF0B55A88B0F808
:1037A0006070B0F85E609D88974228BF17469642C9
:1037B00028BF16461B2E85B00C462ED0B5F5A47F2B
:1037C0002DD040F648039D4201A928BF1D460AF0AE
:1037D00006F9BDF80A309F4228BF1F46BDF80C30DD
:1037E000E780AB4228BF2B462381BDF806309E42BE
:1037F00028BF1E46BDF8083066809D4228BF1D4682
:10380000A580FF232370E3881B3B9BB2E02B08D9E4
:103810004FF4B5613920FDF71BF81B2FCED105B051
:10382000F0BD63881B3B9BB2E02B02D940F2AA514A
:10383000F0E72389A3F5A4739BB2B3F5E06F02D937
:1038400040F2AC51E6E7A388A3F5A4739BB2B3F5AD
:10385000E06FE4D940F2AE51DCE700BF180C002065
:1038600008B50AF05FFF00F06DFF00F0E3FB0BF01E
:1038700008FB01F0C3F901F0B3FF01F0D7F9084BE1
:103880001B224FF4A4715A809980064B06499A80F6
:1038900000221960DA825A821A835A7408BD00BF66
:1038A000180C00203010002003021B00044B41F6CE
:1038B0004C52C3E902221B221A74FFF7D1BF00BF8A
:1038C000301000202DE9FF41344DAB68044640F82C
:1038D000343F09F08DFE064600F09CFB10F0200FEF
:1038E00008BF1B222B7C1DBFAA886988A4F85E1024
:1038F000A4F85E2084F83C30A4F86020E68700F04D
:1039000089FB8B0706D5012302A88DF808300394A4
:1039100009F084FFAE7CEF7CB5F8148041F64C537F
:10392000A36116B900F07CFB064657BB00F078FB9C
:10393000074646B338B302A920468DF808608DF8D3
:103940000970ADF80A800BF004F86B7801932B78BE
:1039500000936A88AB8804F1140104F11000FDF7AC
:1039600043FC236913B940F27F5114E0636913B932
:103970004FF4B0610FE0002004B0BDE8F0810920F1
:10398000FAE7002ED7D120880021FDF7D3FB0028CD
:10399000F5D040F272513920FCF75AFF3010002068
:1039A000F7B505460E4609F0D6FA002873D028462A
:1039B00009F0B2FB40B1B6F80130013B7F2B03D9CF
:1039C0001224204603B0F0BD284609F0A9FB08B92F
:1039D0000C24F6E7284609F0CCFE0028F8D128464A
:1039E00009F077FA04460028F2D12846FEF7EEFEE9
:1039F0000028E5D0B6F80170F17842F2107328463D
:103A00005F4309F076FB284609F07EFB014658B972
:103A10003A462846FFF778FC04460028D1D041F208
:103A20009C713920FCF714FF21460DF10600FDF7CB
:103A3000F3FA064668B3214601F048F8BDF80630AF
:103A400033802846314609F075FB284609F06EFBA5
:103A500098B9284609F06CFB01463046FFF732FF63
:103A600004460028ADD13A4631462846FFF74CFCC3
:103A7000044620B141F2BF71D3E70121EDE7074BC6
:103A80009B68002B9DD0024606F5997130469847F9
:103A900097E70D2495E7422493E700BF180C002018
:103AA000034B5A8802801B7883700020704700BF48
:103AB0003010002037B583781A2B054609D8042B1F
:103AC00005D9012202FA03F3134A134205D1122445
:103AD0001AE0292B01D03B2BF9D12888B0F5706F63
:103AE000F5D269460AF07BFE88B9019B93F8302134
:103AF00002F0FF046AB9AA7883F83121FF2283F823
:103B0000302168460BF098F9204603B030BD0224FE
:103B1000FAE70C24F8E700BF200038040188A1F17F
:103B20001B039BB2E02B0CD84288A2F5A4739BB276
:103B300044F24810834204D8034B002059809A80F5
:103B400070471220704700BF180C0020034B5A88A2
:103B50009B88028043800020704700BF180C002023
:103B600038B504784278857804F0010352EA0301FD
:103B700004F0020401D1112038BDBCB9002DFAD0E7
:103B8000002B08BF144601E000242546204609F01A
:103B9000DFFE0028EFD0284609F0DAFE0028EAD040
:103BA000054B00209C74DD749882E5E7002BEBD177
:103BB00014461D46EAE700BF3010002013B5008808
:103BC00069460AF00CFE18B10224204602B010BD6E
:103BD000019A92F85432DBB292F8BE20002AF3D157
:103BE00013F0FB0FF0D0019890F842310BB13A245A
:103BF000EBE790F8E63003F0FF04002BF7D190F8E4
:103C0000DD309B0706D1012380F8423168460BF076
:103C100013F9DAE702490222DE300BF046F9D4E765
:103C200029F50000F0B50778EF2F85B004460D4662
:103C300003D91225284605B0F0BDB0F80130ADF823
:103C40000C309DF80C30DA063FD49E0603F00302D8
:103C500038D5002AEDD11807EBD46378190711D4B1
:103C60002179E278E07942EA0122617942EA01426F
:103C7000A17941EA0021207A41EA00418A42D8D85C
:103C80001F2AD6D9627A013A062AD2D8A27A032A02
:103C9000CFD813F0040102D1023A012A03D8E27A04
:103CA000012AC6D811B9A27C032AC2D813F0100188
:103CB000227D19D0012ABCD1227E012AB9D8B1B9FE
:103CC0001125B7E7032AC6D1B3E713F0600FB0D1CF
:103CD00003F00F0203F00703052BBED0931E012B48
:103CE000BBD9002AA5D1B8E7022AE5D1A1E7DA07B6
:103CF0001FD46378227D03F0180108291ED1022AFF
:103D0000DED11B0709D4E279A37943EA0223227AA0
:103D100043EA0243B3F5804FD2D8BFB201213846FF
:103D2000FDF7F2F9064678B109F023FDB8B10C258C
:103D300080E700F031F90028DBD1C1E7022AE0D0AA
:103D4000A27E002ADDD0BBE701213846FDF79CF9B1
:103D5000064650B3164B93F9001009F0C9F83046E7
:103D600009F0CFF921462870E074304609F014F9C3
:103D7000637E0546002B3FF45DAF00287FF45AAF09
:103D8000316B02466846FDF7F7FA306B2A4601218F
:103D900008F096FF316B68460422FDF7EDFA306BB0
:103DA0002A46294608F08CFF44E7072542E700BF72
:103DB000180C002070B50579042D8AB0034658D838
:103DC0004488B4F5804F54D82B48465D28440021E0
:103DD0004279857AC07BADF8041042F0100242EAC5
:103DE000460242EA850242EAC00202F01F028DF852
:103DF0000420BDF80420ADF80D201A888DF80F209E
:103E00008DF81240120A240A8DF811108DF8141042
:103E10008DF810208DF813405A7B8DF815205A79B3
:103E20008DF816209A79D3F807008DF81720B3F88B
:103E30000B209B7B8DF81E307F238DF81F300123D4
:103E40008DF80C1006908DF82110ADF81C208DF81F
:103E500020308DF8223003A88DF823108DF824101F
:103E60008DF825108DF8261001A9FFF7DBFE0AB0AA
:103E700070BD1220FBE700BFDC830200027803461E
:103E800072B1427862B142881A2A09D982881A2A04
:103E900006D9044A006810609B8893800020704710
:103EA0001220704730100020024B02689A600020F8
:103EB000704700BF301000200378A3F10A02112AD6
:103EC0009DBF024A0020137412207047301000205A
:103ED00008B5052000F090F802F0DAFE014B024A26
:103EE0009A6008BD180C00209937000008B5FEF74D
:103EF00055FCFFF7F1FABDE808400148FEF738BC71
:103F0000240C002010B50B4C012384F80231FEF77D
:103F10004DFC02F013F80AF003FC04F203112046F2
:103F2000FDF7FCFB002008F071FEBDE8104000F03A
:103F3000CBBF00BF240C002010B5064C064904F589
:103F400002700AF0A2FA04F503700449BDE81040BB
:103F50000AF09BBA240C00204C00002054000020E2
:103F600010B5094C094904F502700AF08EFA04F5FF
:103F7000037007490AF089FA04F504700549BDE8A1
:103F800010400AF082BA00BF240C00206400002018
:103F90006C0000205C000020014B93F80201704788
:103FA000240C002010B5074C00F086FFD4F808025E
:103FB0000AF063FAFFF77AFC01F0FEF8012384F8B7
:103FC000143210BD240C0020014B93F814027047EA
:103FD000240C002010B5074CD4F80C020AF04DFA5E
:103FE000D4F810020AF049FAFFF73AFC002384F8EB
:103FF000143210BD240C0020C2080549012300F032
:10400000070003FA00F08B5C18438854704700BF28
:1040100010000020014BD3E9000170471000002080
:10402000034B1868C0F30020400040F001007047C7
:104030001000002008B504F015FA084A002332F8F1
:104040002310814205D302EB83039B78044A13704B
:1040500008BD01330C2BF2D10023F7E7F0830200F7
:10406000390E002010B544682388A4F89D3194F8D7
:104070006C3084F89C11012B06D0022B04D04FF435
:1040800022710620FCF7E4FB84F89F3194F86D3030
:10409000012B01D0022BF2D184F8A0310449022275
:1040A00004F293100AF001FF002384F83C3110BDA4
:1040B0000BE50000406808490388A0F88F3190F8AC
:1040C000643080F8913190F8653080F8923100F5D5
:1040D000C3700AF0E4BE00BF21E500002DE9F743FC
:1040E000456895F89E3095F89D80232B04460F4631
:1040F0002CD19E3538460AF07EFE00284CD038463A
:104100000AF073FE814638460AF071FE01460AF055
:104110005BFA666848B396F86C30984225D096F8FA
:104120003C21012A0CBF96F83E2196F868201142E6
:1041300032D0B8F1210F18D096F86520114214D171
:1041400053B94FF4B6710620FCF782FBB8F1210F8A
:1041500040F0B3809D35CDE7042B01D0042831D148
:10416000984294BF00200120B0B948460AF02CFACA
:10417000002849D096F86D30834245D096F83C31FE
:10418000012B0CBF96F83F3196F8693019EA030FFE
:1041900014BF01230023BBBB636893F83C21012AB1
:1041A00019D11E212046FFF75DFFB8F1210F1FD165
:1041B000FA786368182A83F8212110D040F26D2123
:1041C0007E20C1E7082BCBD00828C9D098422CBF4D
:1041D00000200120C8E7002283F83C21E5E70922FE
:1041E00083F89D2093F8D63093BB40F27521E7E722
:1041F000002320462B700AF069FF3946204603B0A1
:10420000BDE8F0430AF086BF304601AA39460AF0FD
:10421000E8F9D4F804800646F8B998F83C31012B47
:1042200018D101462046FFF71DFF2E70636803F189
:104230009E02954202D1002283F89E20636803F11A
:104240009E0295424FF0000534D120460AF03EFF11
:10425000002033E088F83C01E8E738460AF0C9FD61
:10426000A8F8B4026068B0F8B432B0F89420013B0A
:104270009B1A9BB247F6FD72934207D9282380F818
:10428000BF301049B6300AF00AFED7E790F89E30EA
:104290000D2B02D00A3B012B01D82A23EFE79DF812
:1042A000043080F8B6329DF8053080F8B732252307
:1042B0002B70C3E783F8D650CAE7022003B0BDE8ED
:1042C000F08300BF3DF10000044B002283F8222060
:1042D0004FF6FF729A84DA841A8570473A0E0020EE
:1042E000054B9A8C824201BF002283F822204FF6B0
:1042F000FF729A84704700BF3A0E0020014BD884A9
:10430000704700BF3A0E0020094A0346908C4FF6D2
:10431000FF71884206D192F82210012905D01A6057
:10432000012070470020186070470020704700BFD0
:104330003A0E0020064B93F82220012A1FBF0120CD
:10434000DA8C83F822009A8408BF0020704700BFEF
:104350003A0E0020014B1885704700BF3A0E00202E
:10436000064B0246198D988C884205D193F822009D
:1043700018B1136001207047002070473A0E0020EA
:10438000094B998C1A8D914201D0002070474FF64D
:10439000FF729A8493F82220002AF6D0002283F834
:1043A00022200120704700BF3A0E0020054B998C57
:1043B0001A8D914203BF93F82200B0FA80F04009B1
:1043C000012070473A0E002050B90A4A13460120D6
:1043D00003F8010B0868C2F801008A889A807047C8
:1043E000012805D1034B0A689A608A88D8719A819E
:1043F000704700BF640E002048B90A4B187880B19E
:10440000D3F80120B3F805300A608B80704701288B
:1044100006D1044BD87920B19A680A609B89F4E7E9
:1044200000207047640E002020B9054B187800F07A
:104430000100704701280ABF014B0020D879F6E738
:10444000640E0020F0B51A4B93F800C00646002514
:10445000E8B2844501D8082029E093F853410A784E
:1044600093F854E193F85871624093F852417440C4
:1044700022444C7884EA0E04224493F855E18C7867
:1044800084EA0E04144493F856E1CA7882EA0E02D4
:10449000144493F857E10A7982EA0E0222444C79D7
:1044A0007C40D44205F1010503F10703D0D1F0BDF2
:1044B000720E002030B5094B01465C78002203F5EE
:1044C0008173D0B2844201D8082005E013F8015B63
:1044D0008D4202F10102F4D130BD00BF720E002006
:1044E000F8B5304C6278013AD2B22318824293F880
:1044F0000251627032D0130101019E1C8F1C2644B0
:10450000274406F1100C56F804EB47F804EB664517
:10451000F9D1823382312344214403F1100653F848
:10452000047B41F8047BB342F9D1A618211896F810
:10453000023181F802314FF48577062313FB0272B2
:1045400013FB0070A318A258225004EB000C9B88A8
:10455000ACF8043096F83A3181F83A312846FFF742
:10456000A9FF08281CD12378013BDBB29D422370B0
:1045700016D007224FF4A97612FB036312FB0560E5
:10458000E218E3582350211893888B809379207880
:104590008B71FFF78FFF08281CBF241884F8025185
:1045A000F8BD00BF720E0020F0B5254D95F88A4188
:1045B00089B0224605F28B11684607F073FB21464D
:1045C00068460AF0CEF80446B8B300EB4001C9B221
:1045D00002A8FCF7D5FA601E95F89361C0B20124D9
:1045E00095F88A2105E0731CB3FBF2F102FB11334D
:1045F000DEB206F120030DEB030111F8203C002B85
:10460000F1D100EB400220326A4406EB46032B4412
:1046100012F8187C83F8947112F8177C12F8162C93
:1046200083F8957183F8962101F8204C0138AB1975
:10463000C0B2FF2883F88B41D2D109B0F0BD00BFD2
:10464000720E002070B505468CB00C46002A58D07A
:104650002E4890F89331C11891F88B2122B94FF46C
:1046600080712820FCF7F4F803EB43020244013385
:1046700092F89461E67092F8956192F896216271D1
:104680000022267181F88B2190F88A21B3FBF2F188
:1046900002FB113380F8933190F8B43123B91C49EF
:1046A00000F5D6700AF0FEFB667906F03F0646F08C
:1046B000400666710D22002104A807F06BFBE37829
:1046C0008DF81F3023798DF81E302B468DF81D6034
:1046D0006D4603F11006186859682A4603C208336C
:1046E000B3421546F7D1684607F0A0F89DF82F3081
:1046F00023709DF82E3063709DF82D30A3700CB0A0
:1047000070BD03216018FCF73BFACDE7720E002064
:10471000A9450000044B5A78824286BF1B1893F8C3
:104720004A010020704700BF720E0020044B5A78E7
:10473000824286BF1B1893F842010020704700BFD9
:10474000720E0020074B00224FF461711A705A70EC
:1047500083F8B52183F8B621A3F8B81183F8B42102
:10476000704700BF720E0020014B83F8B6017047FE
:10477000720E00202DE9F047824617469846FFF753
:1047800061FE082889460546064603D0FFF792FEDB
:1047900008285FD1314C6378072B5DD8082D19D1DB
:1047A0002678731C072E237003D969212820FCF773
:1047B0004FF840F25312072313FB0623D9F80010D9
:1047C000E150E218B9F804309380C6EBC6032344E5
:1047D00083F852A165784FEA051909F102006B1CB4
:1047E00010223946204463700AF012F809F1820061
:1047F0001022414620440AF00BF81021404609F0EF
:10480000FBFF2544102185F84201384609F0F4FFEA
:1048100085F80261667885F84A01002385F83A3107
:1048200031460F4809F09DFF314605460D4809F015
:1048300098FF012D03D8002818BF0135EDB284F888
:104840008A510025284684F89351FFF7ADFE28468B
:10485000BDE8F0871220FBE70720F9E7720E002081
:10486000B40F0020BC0F002010B5064B587801385B
:1048700040B2002800DA10BDC4B22046FFF730FE77
:10488000601EF5E7720E0020014B83F8B5017047FA
:10489000720E0020014B93F8B5017047720E002094
:1048A000431E9BB24AF2B71293429DBF024BA3F83C
:1048B000B801012000207047720E0020014BB3F8B0
:1048C000B8017047720E002010B50D4B5C78844221
:1048D00014D9184490F80201C0EBC0041C4494F8A9
:1048E00052410C70072140F2531411FB004158183B
:1048F0005B58136083889380012010BD0020FCE783
:10490000720E00200246074810B590F8B54124B158
:10491000417821B1023002F005FA204610BD0C4664
:10492000FBE700BF720E00202DE9F74F2F4C9A468F
:10493000637883428046894656D9231893F84251BA
:1049400085F00105F9B193F84A31E3B945F0020762
:104950000135BAF1000F18D1FA070AD5062101FB7B
:10496000084104EB0810524601F585718230FFF7CB
:1049700069FEBB0734D504EB0810524649460230A5
:10498000FFF760FE2CE02F46E3E794F893614FF0C9
:10499000010B002DE0D0A319019393F88B1199B965
:1049A0000092DAB100F0D8FB06EB46012144019BEE
:1049B00081F894014FEA102C009A81F895C1000CFF
:1049C00081F8960183F88BB194F88A310136B6FBF1
:1049D000F3F103FB1166F6B2013DDAE747F0040795
:1049E000384603B0BDE8F08F0027F9E7720E0020CB
:1049F000074B5A78824209D91A1892F842212AB9EB
:104A0000062202FB003000F58570704700207047D9
:104A1000720E0020064B5A78824281BF1B1893F811
:104A20003A01B0FA80F0400998BF0020704700BFFB
:104A3000720E0020F8B50E46074606213046154690
:104A400009F0DAFE044640B10A482946427800F5EA
:104A50009D7007F09FF92046F8BD3146384609F0B1
:104A60009CFE08281FBF034BC018012480F83A5150
:104A7000F1E700BF720E002030B50024A0F84C40D2
:104A8000B0F8504042F210754C43B4FBF2F4A0F879
:104A90005040541E05FB0343B3FBF2F3A0F84E3025
:104AA000094BB3FBF2F30133A0F85430B0F84830AF
:104AB00005FB0344036CB4FBF2F459434464B1FBBB
:104AC000F2F2026430BD00BF005A620270B50446C3
:104AD0000D4649BB4FF4387207F05CF9012384F8A6
:104AE000A530492384F8ED30042384F8EE306FF0CC
:104AF0003B0384F8EF30072384F8F0302B2384F84D
:104B0000EC30FE2384F826317F2384F899301F4B44
:104B1000C4F88830202384F8F15084F8F25084F8E7
:104B2000F35084F89C3270BD012922D100238269A0
:104B3000A0F8263280F81B32154B1344B3FBF2F376
:104B4000C0F8C43040F6B833A0F8C8301146438CE2
:104B50008030FFF791FF0BF027FA30B1E069FEF7E4
:104B6000D1FD10B984F80C52DDE7002384F80C3233
:104B7000D9E70229D7D1B0F8C232D0F8BC22816976
:104B8000BDE870408030FFF777BF00BF00E0FCFF5A
:104B90007FC3C901074B93F900301844142804DC83
:104BA00010F17F0F03DB40B27047142070476FF0A5
:104BB0007E0070472C10002007B57F230DF1070001
:104BC0008DF8073002F05EFF9DF9073068B10A4AA0
:104BD0005078404243FA80F0142808DC10F17F0F2F
:104BE00007DB40B203B05DF804FB1846FAE7142077
:104BF000F8E76FF07E00F5E72C100020024B002252
:104C00001A705A70704700BF2C100020054B0168C5
:104C1000FF221A70044A11600179117100221A7082
:104C2000704700BF2E1000201800002007B5064B6B
:104C3000186800901B798DF804306846FFF7E6FF8E
:104C400003B05DF804FB00BF78BD020008B503782F
:104C500001F00F0223F00F0313430629037003D85A
:104C6000034B5B5C437008BDA8212A20FBF7F0FDD5
:104C7000208402000346407850B1DA782A2A06D808
:104C8000044B1344DB791B1A5842584170470120EA
:104C9000704700BF208402002A2908B5C17004D8DB
:104CA000064B1944CB79437008BDFF2904D04FF45B
:104CB0008D612A20FBF7CCFD0123F4E7208402005C
:104CC0002DE9F04385B0894602A91446984609F0BB
:104CD00086FD054600283CD1039E34B9012486F8A0
:104CE000A440204605B0BDE8F08337692146384628
:104CF00007F08FFD014670B3194B5B88A3422CD39C
:104D000001AA384607F0DAFE019B1D809D7096F8D7
:104D1000A4300198002B0CBF4946022109F0B6FFD0
:104D2000019822464146033006F0BCFF2146384632
:104D300007F0A4FD044618B97C212B20FBF788FD61
:104D400002A80AF079F8039BA3F8125286F8A4503F
:104D5000C7E70124C5E70446C3E72C46C1E700BF07
:104D600030100020024B987DC04300F001007047D6
:104D700030100020034B987D80F00200C0F340000B
:104D8000704700BF3010002010B5094C14220021DC
:104D9000204606F0FFFF1222002104F1140006F065
:104DA000F9FF01232373231DC4E9003310BD00BFA5
:104DB0004C1000207FB505460C4621B940F20B117E
:104DC0001020FBF745FD03888B8000234B7246695A
:104DD000304607F065FE014610B94FF48A71EFE7DF
:104DE00001AA304607F06AFEE08010B940F21911BE
:104DF000E6E7FB2802D940F21B11E1E7019809F030
:104E00004DFF012801D0022805D12072206828B961
:104E10004FF49971D4E740F22B11D1E70199E28860
:104E2000033106F03FFF304607F050FE10B940F264
:104E30003711C5E70021304607F084FD10B94FF463
:104E40009E71BDE70A4BDA7D82B11A8B2888013A40
:104E500002A91A8309F0C3FC10B140F24511AFE773
:104E6000039AB2F8B4300133A2F8B43004B070BD84
:104E70003010002010B520B940F271211020FBF74E
:104E8000E7FC41600272EFF3108472B6094B1A1D01
:104E90000260596819B1097A012908BF1A601A68B5
:104EA0001060186004B962B6BDE8104093F826009F
:104EB00006F08EBD4C100020024B83F82600FFF751
:104EC00063BF00BF4C100020014B024A1A607047BC
:104ED00074000020B54D0000F7B5514E514F054606
:104EE00073681B7A102B06D1FB7D23B13B8B13B962
:104EF000002003B0F0BD3369ABB11B7A9BB13469BC
:104F0000002CF5D0237ADBB20522023B22720E2B55
:104F100078D8DFE803F01925457777774E777777EC
:104F2000777777636A007468237A012BE0D0EFF318
:104F3000108372B672681268726003B962B6237A1F
:104F4000002BD8D03461DDE7636823B94FF4E171F9
:104F50001020FBF77DFC29462046984704200FE0EF
:104F6000636813B940F2CB11F2E72946204698470F
:104F70000346C3F30723012BADF80400C0B244D0AD
:104F8000EFF3108372B6227A052AD1B201D000293C
:104F900041D1002222723261002B38D162B636E054
:104FA000636813B940F2D511D2E720469847002034
:104FB000E6E763680BB9E021CAE70B222A701A887A
:104FC000A5F803200024012218696A71AC71AA7047
:104FD000214607F0B7FC346104208AE715232B70C3
:104FE000D4F80930C5F80330B8E7606810B940F26A
:104FF0003D21ADE70C4B29461B68984700233361E0
:10500000022076E740F24621A2E70323237200281C
:105010003FF466AF6DE7002B7FF462AF62B65FE7E7
:105020004C10002030100020740000200448037F42
:1050300023B904490222143009F025BF704700BF8C
:105040004C10002079EE00001B234FF01B128384CC
:10505000038482618382C260038539B94FF4A473EB
:10506000034AC3844384C261C3820261704700BFA4
:105070004801480103460846B3F85820B3F84C10DD
:105080009142F0B528BF1146B3F85040B3F85A200A
:10509000B3F84850B3F84270B3F84660A3F8421032
:1050A000A24228BF2246B3F84A40A3F846209442C1
:1050B00038BF14468D4238BF0D468F42A3F8485082
:1050C000A3F84A402ED1B61A18BF0126B3F84E50A5
:1050D000B3F85440B3F856E0B3F840C0B3F84470A6
:1050E000A54228BF2546B3F85240A3F84050744566
:1050F00028BF7446AC45A3F8444002D1A74200D172
:1051000096B11B88A0F80930A0F80B50A0F80D400C
:10511000A0F80F10A0F81120BDE8F04003490222CA
:1051200009F0C3BE0126D1E7F0BD00BFC3EE000009
:105130000B8BA2F80B304B8BA2F80D308B8BA2F8A7
:105140000F30CB8BA2F809000249A2F811301046AB
:1051500009F0A5BE03EF0000094AD2E9000343406D
:1051600083EAB01181EA43214FEAF3435360054BD0
:10517000116058434FEAF06000EB8000704700BFB9
:1051800074100020BB79379E094AD2E902034340DC
:1051900083EAB01181EA43214FEAF343D360054B20
:1051A000916058434FEAF06000EB8000704700BF09
:1051B00074100020BB79379E38B50A4C04F10805FD
:1051C00008212846FBF7DCFCD4E902231343F7D07F
:1051D000FFF7DAFF2060FFF7D7FF23686060034323
:1051E000F6D038BD7410002070B5044640680D46F6
:1051F00090F89E2001230021803009F013FB20B39A
:105200002846666809F097FDA6F8B4026068B0F811
:10521000B432B0F89420013B9B1A9BB247F6FD7262
:10522000934208D9282380F8BF300949B63009F0E5
:1052300036FE002070BD00F2B621284609F076FD4A
:1052400063680A2283F89E20F3E70120F2E700BF9B
:105250003DF10000F8B5044640680D4690F89E20E8
:1052600001230021803009F0DDFA002849D0002117
:10527000284609F02EFD28B929462046BDE8F84009
:1052800009F048BF6068B5F80D30B0F89420A0F878
:10529000B432D24313449BB247F6FD72934208D90D
:1052A000282380F8BF301849B63009F0F8FD0020F7
:1052B000F8BD284609F004FD09F06FFB6768C7F8E0
:1052C000BC0206460146287909F06BFBA7F8B60236
:1052D0003146B5F80500676809F06CFBC7F8B802FD
:1052E0002846666809F0EFFCA6F8C0022846666802
:1052F00009F0ECFC6368A6F8C2020D2283F89E2038
:10530000D5E70120D4E700BF3DF1000008B54068B3
:1053100090F89E30152B04D04FF493711F20FBF7AB
:1053200097FA012380F8DB30162380F89E30BDE821
:1053300008400349022200F5317009F0A4BD00BF06
:10534000E7F20000436830B5D3F88C4014F0010058
:105350001DD14D680F4A8968A3F8D8002A40C3F8C8
:10536000EC20C2F3076242F0080221F4FF6183F8E7
:10537000EF2093F8DA20C904C90C013244F001048B
:10538000C3F8F01083F8DA20C3F88C4030BD012058
:10539000FCE700BF2F4904F770B54468037894F820
:1053A0009D200D4604F18000072109F03BFA70B3FF
:1053B0006968194BAA680B40C4F8EC3022F4FF620C
:1053C000C3F3076343F00803D204D20C84F8EF3030
:1053D0000023C4F8F02084F8D63084F89D3094F887
:1053E000A92102F0FF06A2B92388A4F8AB3184F802
:1053F000AA616B68C4F8AD31AB680849C4F8B13133
:10540000022204F2A11009F03EFD304670BD0126D3
:10541000FBE71E46F9E700BF2F4904F719F4000027
:10542000406890F8A9315BB90388A0F8AB311A2322
:1054300080F8AA310349022200F2A11009F023BD2D
:10544000704700BF19F4000010B50446FEF7E2FDF6
:10545000044B21F4FF61C9040340C90C6360A160DF
:1054600010BD00BF2F4904F737B50C464568FEF75D
:10547000D1FD094B95F8EC2021F4FF610340C904EC
:105480000093C90C13408DF8003001916B4603CB9B
:105490006060A16003B030BD2F4904F738B544689F
:1054A000037894F89D200D4604F18000082109F04E
:1054B000B9F918B9D4F88C30980741D494F8DD3094
:1054C00099071AD4284609F058FC84F8E700B5F883
:1054D0000530A4F8E830B5F80730A4F8EA3094F8BD
:1054E000DD3043F0020284F8DD20DA0705D51549E6
:1054F000022204F1DE0009F0D8FC94F8DD30DB076D
:1055000013D4D4F88C3013F0020203D05021402081
:10551000FBF79EF943F00203C4F88C3094F8DA30BC
:10552000A4F8D820013384F8DA3094F89D30012BA8
:105530004FF0000003D184F89D0084F8D60038BDF8
:105540000120FCE729F50000114A00F5006092F9FE
:105550000010031340F3073081420BDD92F9012064
:10556000584242FA80F07F280DDC10F1800F0CDBEE
:1055700040B2704792F90210814202DA92F9032098
:10558000EEE7002070477F2070476FF07F00704784
:1055900084100020F7B56FF4F473C718044697F829
:1055A0006D0008F05BF96FF4B47214440546A0680E
:1055B000FFF7CAFF064658B3D4E900126FF0004364
:1055C0009A4208BFB1F1FF3F22D00AF024FCD4E98F
:1055D0000023904271EB03031AD33888694609F01F
:1055E000FEF818B184217A20FBF732F9691C0223F6
:1055F0003246C9B2684608F03FF948B9054B9D8864
:105600000AF009FC4FF47A76E6FB0501C4E90001D3
:1056100003B0F0BD84100020044B9B685843C3F5D1
:1056200080534B4303EB2030704700BF84100020B1
:105630002DE9F04106464768FFF7BEFA74687F28F7
:10564000054684F899001ED1002397F83020012ADE
:1056500067D1002B65D0706890F85231002B60D173
:105660003B88A0F8533197F8993080F8553197F876
:105670009A3080F85631BDE8F0412B49022200F5FE
:10568000A57009F000BC94F8B33084F89A30014654
:10569000D4F88800FFF7C0FF244BC4F888001B7BB8
:1056A000F3B1FFF751FFD8B1D4E920126FF00043F6
:1056B0009A4208BFB1F1FF3F12D00AF0ACFBD4E927
:1056C0002023904271EB03030AD3D6F8048001F043
:1056D00093FE174988F86D0008F2E91009F0EEFB17
:1056E00094F99B2094F83110AB1A1BB2002BB8BF71
:1056F0005B429BB28B42A7D3FF29A5D094F89C3084
:1057000094F832100133DBB2994284F89C3001D313
:105710007F2A99D1002384F89C3084F89B50012380
:1057200093E7BDE8F08100BFABF5000084100020D6
:1057300095550000F0B5204E0546307800241470D1
:1057400080B1431E7768DBB2181B01280BDC07EB26
:10575000C40057F834604068884208BFAE4212D196
:1057600014700120F0BD1819461007EBC60E57F84B
:1057700036C0DEF80460AC45C0F347008E412CBF54
:1057800003460446E0E7B54271EB000002D2147014
:105790000020E7E707EBC30057F833404068884232
:1057A00008BFAC4201D11370DBE7A542814128BF9D
:1057B00001331370ECE700BF9410002010F00702D3
:1057C00008B503D063214820FBF742F818B1034B1A
:1057D000197258601A70C80008BD00BF94100020EC
:1057E000014B00221A70704794100020014B187A68
:1057F000704700BF941000202DE9D34309F0DCFE70
:105800000DF1070207460E46FFF794FF98B9114CB9
:105810002278237A93420ED0616813466FF0604E6F
:105820009DF80700984209D301EBC003C3E9007655
:1058300001322270012002B0BDE8D08303EB0E00DC
:1058400001EBC000D0E90089013BC0E90289DBB26D
:10585000E6E700BF9410002037B509F0ADFE0DF16A
:105860000702FFF767FF0446A0B10C4A9DF8070046
:1058700013785568013BDBB213701A1AD2B2411C7F
:10588000D200834238BF002205EBC10105EBC00006
:1058900006F0C2F9204603B030BD00BF94100020CE
:1058A00038B5436893F89E201C2A044604D04FF470
:1058B0009A613120FAF7CCFF93F8DC101D880022A2
:1058C00083F8DB2003F2FF1071B10C4983F8DC2070
:1058D00083F80822A3F80952022209F0D4FA636877
:1058E000002283F89E2038BD012283F8081283F835
:1058F0000B220349A3F809520222EEE7D1F200007D
:10590000B7F20000172870B503460D460CD80D28D5
:105910000ED9A0F10E0109290AD8DFE801F00B0920
:1059200009090B090B09110BA0F12303022B25D93F
:10593000002070BDBDE870400021184609F082BE0D
:10594000124C606890F89D30212B0AD129462046E0
:10595000FEF788FB6368002283F89D2083F8D62039
:10596000E6E72E2BE4D190F89E2001230B21803016
:1059700008F058FF0028EDD12A21E8E7044B1B6806
:10598000002BD5D0BDE87040184700BFA010002004
:10599000D4010020114B09790246586890F89D30D7
:1059A000212B11D02E2B0FD0282B0FD0042B0FD052
:1059B0000F2B0FD01D2B0FD090F89E30232B14BF30
:1059C000FE201720FFF79EBF1620FBE72320F9E7F4
:1059D0000E20F7E71220F5E71420F3E7A0100020CF
:1059E00008B5084B586890F8A3304BB990F89E2042
:1059F00001230621803008F015FF00F0010008BDEA
:105A00000120FAE7A0100020F8B52D4B1A89402894
:105A100042EA00021A8105D158680421BDE8F84025
:105A2000FDF77CBD00F00302032A04D140F6F62105
:105A30003120FAF70DFF10F0020418BFD960C50736
:105A400005D5CA781961062A0DD00B2A18D02CB1B9
:105A5000DA68D278052A1FD00B2A2AD0820644BFE2
:105A600008221A75F8BD5A6892F89E101829EED1CE
:105A7000002600270121C2E93E6782F8A210E6E76E
:105A80005A6892F89E10122901BF002182F8A210D4
:105A9000012182F8DC10DAE75A6892F89E10162984
:105AA000DCD100240025C2E94045012182F8A31081
:105AB000D4E75A6892F89E101129CFD10021F5E75A
:105AC000A010002013B5044601A8FEF71DFC20B964
:105AD00040F2EA713120FAF7BBFE22220021019840
